{
  "_format": "hh-sol-artifact-1",
  "contractName": "ERC3643Token",
  "sourceName": "contracts/RWA3643/ERC3643Token.sol",
  "abi": [
    {
      "inputs": [
        {
          "internalType": "string",
          "name": "tokenName",
          "type": "string"
        },
        {
          "internalType": "string",
          "name": "tokenSymbol",
          "type": "string"
        },
        {
          "internalType": "uint8",
          "name": "tokenDecimals",
          "type": "uint8"
        },
        {
          "internalType": "string",
          "name": "version_",
          "type": "string"
        },
        {
          "internalType": "address",
          "name": "onchainID_",
          "type": "address"
        },
        {
          "internalType": "address",
          "name": "_identityRegistry",
          "type": "address"
        },
        {
          "internalType": "address",
          "name": "_compliance",
          "type": "address"
        }
      ],
      "stateMutability": "nonpayable",
      "type": "constructor"
    },
    {
      "anonymous": false,
      "inputs": [
        {
          "indexed": true,
          "internalType": "address",
          "name": "_userAddress",
          "type": "address"
        },
        {
          "indexed": true,
          "internalType": "bool",
          "name": "_isFrozen",
          "type": "bool"
        },
        {
          "indexed": true,
          "internalType": "address",
          "name": "_owner",
          "type": "address"
        }
      ],
      "name": "AddressFrozen",
      "type": "event"
    },
    {
      "anonymous": false,
      "inputs": [
        {
          "indexed": true,
          "internalType": "address",
          "name": "_agent",
          "type": "address"
        }
      ],
      "name": "AgentAdded",
      "type": "event"
    },
    {
      "anonymous": false,
      "inputs": [
        {
          "indexed": true,
          "internalType": "address",
          "name": "_agent",
          "type": "address"
        }
      ],
      "name": "AgentRemoved",
      "type": "event"
    },
    {
      "anonymous": false,
      "inputs": [
        {
          "indexed": true,
          "internalType": "address",
          "name": "owner",
          "type": "address"
        },
        {
          "indexed": true,
          "internalType": "address",
          "name": "spender",
          "type": "address"
        },
        {
          "indexed": false,
          "internalType": "uint256",
          "name": "value",
          "type": "uint256"
        }
      ],
      "name": "Approval",
      "type": "event"
    },
    {
      "anonymous": false,
      "inputs": [
        {
          "indexed": true,
          "internalType": "address",
          "name": "user",
          "type": "address"
        },
        {
          "indexed": false,
          "internalType": "bool",
          "name": "blacklisted",
          "type": "bool"
        }
      ],
      "name": "BlacklistUpdated",
      "type": "event"
    },
    {
      "anonymous": false,
      "inputs": [
        {
          "indexed": true,
          "internalType": "address",
          "name": "_compliance",
          "type": "address"
        }
      ],
      "name": "ComplianceAdded",
      "type": "event"
    },
    {
      "anonymous": false,
      "inputs": [
        {
          "indexed": true,
          "internalType": "bytes32",
          "name": "_name",
          "type": "bytes32"
        },
        {
          "indexed": false,
          "internalType": "string",
          "name": "_uri",
          "type": "string"
        },
        {
          "indexed": false,
          "internalType": "bytes32",
          "name": "_documentHash",
          "type": "bytes32"
        }
      ],
      "name": "DocumentRemoved",
      "type": "event"
    },
    {
      "anonymous": false,
      "inputs": [
        {
          "indexed": true,
          "internalType": "bytes32",
          "name": "_name",
          "type": "bytes32"
        },
        {
          "indexed": false,
          "internalType": "string",
          "name": "_uri",
          "type": "string"
        },
        {
          "indexed": false,
          "internalType": "bytes32",
          "name": "_documentHash",
          "type": "bytes32"
        }
      ],
      "name": "DocumentUpdated",
      "type": "event"
    },
    {
      "anonymous": false,
      "inputs": [
        {
          "indexed": true,
          "internalType": "address",
          "name": "_identityRegistry",
          "type": "address"
        }
      ],
      "name": "IdentityRegistryAdded",
      "type": "event"
    },
    {
      "anonymous": false,
      "inputs": [
        {
          "indexed": true,
          "internalType": "address",
          "name": "previousOwner",
          "type": "address"
        },
        {
          "indexed": true,
          "internalType": "address",
          "name": "newOwner",
          "type": "address"
        }
      ],
      "name": "OwnershipTransferred",
      "type": "event"
    },
    {
      "anonymous": false,
      "inputs": [
        {
          "indexed": false,
          "internalType": "address",
          "name": "account",
          "type": "address"
        }
      ],
      "name": "Paused",
      "type": "event"
    },
    {
      "anonymous": false,
      "inputs": [
        {
          "indexed": false,
          "internalType": "address",
          "name": "_lostWallet",
          "type": "address"
        },
        {
          "indexed": false,
          "internalType": "address",
          "name": "_newWallet",
          "type": "address"
        },
        {
          "indexed": false,
          "internalType": "address",
          "name": "_investorOnchainID",
          "type": "address"
        }
      ],
      "name": "RecoverySuccess",
      "type": "event"
    },
    {
      "anonymous": false,
      "inputs": [
        {
          "indexed": true,
          "internalType": "address",
          "name": "_userAddress",
          "type": "address"
        },
        {
          "indexed": false,
          "internalType": "uint256",
          "name": "_amount",
          "type": "uint256"
        }
      ],
      "name": "TokensFrozen",
      "type": "event"
    },
    {
      "anonymous": false,
      "inputs": [
        {
          "indexed": true,
          "internalType": "address",
          "name": "_userAddress",
          "type": "address"
        },
        {
          "indexed": false,
          "internalType": "uint256",
          "name": "_amount",
          "type": "uint256"
        }
      ],
      "name": "TokensUnfrozen",
      "type": "event"
    },
    {
      "anonymous": false,
      "inputs": [
        {
          "indexed": true,
          "internalType": "address",
          "name": "from",
          "type": "address"
        },
        {
          "indexed": true,
          "internalType": "address",
          "name": "to",
          "type": "address"
        },
        {
          "indexed": false,
          "internalType": "uint256",
          "name": "value",
          "type": "uint256"
        }
      ],
      "name": "Transfer",
      "type": "event"
    },
    {
      "anonymous": false,
      "inputs": [
        {
          "indexed": false,
          "internalType": "address",
          "name": "account",
          "type": "address"
        }
      ],
      "name": "Unpaused",
      "type": "event"
    },
    {
      "anonymous": false,
      "inputs": [
        {
          "indexed": false,
          "internalType": "string",
          "name": "_newName",
          "type": "string"
        },
        {
          "indexed": false,
          "internalType": "string",
          "name": "_newSymbol",
          "type": "string"
        },
        {
          "indexed": false,
          "internalType": "uint8",
          "name": "_newDecimals",
          "type": "uint8"
        },
        {
          "indexed": false,
          "internalType": "string",
          "name": "_newVersion",
          "type": "string"
        },
        {
          "indexed": false,
          "internalType": "address",
          "name": "_newOnchainID",
          "type": "address"
        }
      ],
      "name": "UpdatedTokenInformation",
      "type": "event"
    },
    {
      "anonymous": false,
      "inputs": [
        {
          "indexed": true,
          "internalType": "address",
          "name": "user",
          "type": "address"
        },
        {
          "indexed": false,
          "internalType": "bool",
          "name": "whitelisted",
          "type": "bool"
        }
      ],
      "name": "WhitelistUpdated",
      "type": "event"
    },
    {
      "inputs": [
        {
          "internalType": "address",
          "name": "_agent",
          "type": "address"
        }
      ],
      "name": "addAgent",
      "outputs": [],
      "stateMutability": "nonpayable",
      "type": "function"
    },
    {
      "inputs": [
        {
          "internalType": "address",
          "name": "owner",
          "type": "address"
        },
        {
          "internalType": "address",
          "name": "spender",
          "type": "address"
        }
      ],
      "name": "allowance",
      "outputs": [
        {
          "internalType": "uint256",
          "name": "",
          "type": "uint256"
        }
      ],
      "stateMutability": "view",
      "type": "function"
    },
    {
      "inputs": [
        {
          "internalType": "address",
          "name": "spender",
          "type": "address"
        },
        {
          "internalType": "uint256",
          "name": "amount",
          "type": "uint256"
        }
      ],
      "name": "approve",
      "outputs": [
        {
          "internalType": "bool",
          "name": "",
          "type": "bool"
        }
      ],
      "stateMutability": "nonpayable",
      "type": "function"
    },
    {
      "inputs": [
        {
          "internalType": "address",
          "name": "account",
          "type": "address"
        }
      ],
      "name": "balanceOf",
      "outputs": [
        {
          "internalType": "uint256",
          "name": "",
          "type": "uint256"
        }
      ],
      "stateMutability": "view",
      "type": "function"
    },
    {
      "inputs": [
        {
          "internalType": "address[]",
          "name": "agentList",
          "type": "address[]"
        }
      ],
      "name": "batchAddAgent",
      "outputs": [],
      "stateMutability": "nonpayable",
      "type": "function"
    },
    {
      "inputs": [
        {
          "internalType": "address[]",
          "name": "_userAddresses",
          "type": "address[]"
        },
        {
          "internalType": "uint256[]",
          "name": "_amounts",
          "type": "uint256[]"
        }
      ],
      "name": "batchBurn",
      "outputs": [],
      "stateMutability": "nonpayable",
      "type": "function"
    },
    {
      "inputs": [
        {
          "internalType": "address[]",
          "name": "_users",
          "type": "address[]"
        }
      ],
      "name": "batchCheckWhitelist",
      "outputs": [
        {
          "internalType": "bool[]",
          "name": "",
          "type": "bool[]"
        }
      ],
      "stateMutability": "view",
      "type": "function"
    },
    {
      "inputs": [
        {
          "internalType": "address[]",
          "name": "_fromList",
          "type": "address[]"
        },
        {
          "internalType": "address[]",
          "name": "_toList",
          "type": "address[]"
        },
        {
          "internalType": "uint256[]",
          "name": "_amounts",
          "type": "uint256[]"
        }
      ],
      "name": "batchForcedTransfer",
      "outputs": [],
      "stateMutability": "nonpayable",
      "type": "function"
    },
    {
      "inputs": [
        {
          "internalType": "address[]",
          "name": "_userAddresses",
          "type": "address[]"
        },
        {
          "internalType": "uint256[]",
          "name": "_amounts",
          "type": "uint256[]"
        }
      ],
      "name": "batchFreezePartialTokens",
      "outputs": [],
      "stateMutability": "nonpayable",
      "type": "function"
    },
    {
      "inputs": [
        {
          "internalType": "address[]",
          "name": "_toList",
          "type": "address[]"
        },
        {
          "internalType": "uint256[]",
          "name": "_amounts",
          "type": "uint256[]"
        }
      ],
      "name": "batchMint",
      "outputs": [],
      "stateMutability": "nonpayable",
      "type": "function"
    },
    {
      "inputs": [
        {
          "internalType": "address[]",
          "name": "agentList",
          "type": "address[]"
        }
      ],
      "name": "batchRemoveAgent",
      "outputs": [],
      "stateMutability": "nonpayable",
      "type": "function"
    },
    {
      "inputs": [
        {
          "internalType": "bytes32[]",
          "name": "_names",
          "type": "bytes32[]"
        }
      ],
      "name": "batchRemoveDocument",
      "outputs": [],
      "stateMutability": "nonpayable",
      "type": "function"
    },
    {
      "inputs": [
        {
          "internalType": "address[]",
          "name": "_userAddresses",
          "type": "address[]"
        },
        {
          "internalType": "bool[]",
          "name": "_freeze",
          "type": "bool[]"
        }
      ],
      "name": "batchSetAddressFrozen",
      "outputs": [],
      "stateMutability": "nonpayable",
      "type": "function"
    },
    {
      "inputs": [
        {
          "internalType": "address[]",
          "name": "_users",
          "type": "address[]"
        },
        {
          "internalType": "bool[]",
          "name": "_blacklisted",
          "type": "bool[]"
        }
      ],
      "name": "batchSetBlacklist",
      "outputs": [],
      "stateMutability": "nonpayable",
      "type": "function"
    },
    {
      "inputs": [
        {
          "internalType": "bytes32[]",
          "name": "_names",
          "type": "bytes32[]"
        },
        {
          "internalType": "string[]",
          "name": "_uris",
          "type": "string[]"
        },
        {
          "internalType": "bytes32[]",
          "name": "_documentHashes",
          "type": "bytes32[]"
        }
      ],
      "name": "batchSetDocument",
      "outputs": [],
      "stateMutability": "nonpayable",
      "type": "function"
    },
    {
      "inputs": [
        {
          "internalType": "address[]",
          "name": "_users",
          "type": "address[]"
        },
        {
          "internalType": "bool[]",
          "name": "_whitelisted",
          "type": "bool[]"
        }
      ],
      "name": "batchSetWhitelist",
      "outputs": [],
      "stateMutability": "nonpayable",
      "type": "function"
    },
    {
      "inputs": [
        {
          "internalType": "address[]",
          "name": "_toList",
          "type": "address[]"
        },
        {
          "internalType": "uint256[]",
          "name": "_amounts",
          "type": "uint256[]"
        }
      ],
      "name": "batchTransfer",
      "outputs": [],
      "stateMutability": "nonpayable",
      "type": "function"
    },
    {
      "inputs": [
        {
          "internalType": "address[]",
          "name": "_userAddresses",
          "type": "address[]"
        },
        {
          "internalType": "uint256[]",
          "name": "_amounts",
          "type": "uint256[]"
        }
      ],
      "name": "batchUnfreezePartialTokens",
      "outputs": [],
      "stateMutability": "nonpayable",
      "type": "function"
    },
    {
      "inputs": [
        {
          "internalType": "address",
          "name": "from",
          "type": "address"
        },
        {
          "internalType": "uint256",
          "name": "amount",
          "type": "uint256"
        }
      ],
      "name": "burn",
      "outputs": [],
      "stateMutability": "nonpayable",
      "type": "function"
    },
    {
      "inputs": [],
      "name": "compliance",
      "outputs": [
        {
          "internalType": "contract ICompliance",
          "name": "",
          "type": "address"
        }
      ],
      "stateMutability": "view",
      "type": "function"
    },
    {
      "inputs": [],
      "name": "decimals",
      "outputs": [
        {
          "internalType": "uint8",
          "name": "",
          "type": "uint8"
        }
      ],
      "stateMutability": "view",
      "type": "function"
    },
    {
      "inputs": [
        {
          "internalType": "address",
          "name": "spender",
          "type": "address"
        },
        {
          "internalType": "uint256",
          "name": "subtractedValue",
          "type": "uint256"
        }
      ],
      "name": "decreaseAllowance",
      "outputs": [
        {
          "internalType": "bool",
          "name": "",
          "type": "bool"
        }
      ],
      "stateMutability": "nonpayable",
      "type": "function"
    },
    {
      "inputs": [
        {
          "internalType": "address",
          "name": "_from",
          "type": "address"
        },
        {
          "internalType": "address",
          "name": "_to",
          "type": "address"
        },
        {
          "internalType": "uint256",
          "name": "_amount",
          "type": "uint256"
        }
      ],
      "name": "forcedTransfer",
      "outputs": [
        {
          "internalType": "bool",
          "name": "",
          "type": "bool"
        }
      ],
      "stateMutability": "nonpayable",
      "type": "function"
    },
    {
      "inputs": [
        {
          "internalType": "address",
          "name": "_userAddress",
          "type": "address"
        },
        {
          "internalType": "uint256",
          "name": "_amount",
          "type": "uint256"
        }
      ],
      "name": "freezePartialTokens",
      "outputs": [],
      "stateMutability": "nonpayable",
      "type": "function"
    },
    {
      "inputs": [],
      "name": "getAgents",
      "outputs": [
        {
          "internalType": "address[]",
          "name": "",
          "type": "address[]"
        }
      ],
      "stateMutability": "view",
      "type": "function"
    },
    {
      "inputs": [],
      "name": "getAgentsCount",
      "outputs": [
        {
          "internalType": "uint256",
          "name": "",
          "type": "uint256"
        }
      ],
      "stateMutability": "view",
      "type": "function"
    },
    {
      "inputs": [],
      "name": "getAllDocuments",
      "outputs": [
        {
          "internalType": "bytes32[]",
          "name": "",
          "type": "bytes32[]"
        }
      ],
      "stateMutability": "view",
      "type": "function"
    },
    {
      "inputs": [
        {
          "internalType": "address",
          "name": "_user",
          "type": "address"
        }
      ],
      "name": "getAvailableBalance",
      "outputs": [
        {
          "internalType": "uint256",
          "name": "",
          "type": "uint256"
        }
      ],
      "stateMutability": "view",
      "type": "function"
    },
    {
      "inputs": [],
      "name": "getBlacklist",
      "outputs": [
        {
          "internalType": "address[]",
          "name": "",
          "type": "address[]"
        }
      ],
      "stateMutability": "view",
      "type": "function"
    },
    {
      "inputs": [],
      "name": "getCompliance",
      "outputs": [
        {
          "internalType": "address",
          "name": "",
          "type": "address"
        }
      ],
      "stateMutability": "view",
      "type": "function"
    },
    {
      "inputs": [
        {
          "internalType": "address",
          "name": "_user",
          "type": "address"
        }
      ],
      "name": "getCountry",
      "outputs": [
        {
          "internalType": "uint16",
          "name": "",
          "type": "uint16"
        }
      ],
      "stateMutability": "view",
      "type": "function"
    },
    {
      "inputs": [
        {
          "internalType": "bytes32",
          "name": "_name",
          "type": "bytes32"
        }
      ],
      "name": "getDocument",
      "outputs": [
        {
          "internalType": "string",
          "name": "",
          "type": "string"
        },
        {
          "internalType": "bytes32",
          "name": "",
          "type": "bytes32"
        },
        {
          "internalType": "uint256",
          "name": "",
          "type": "uint256"
        }
      ],
      "stateMutability": "view",
      "type": "function"
    },
    {
      "inputs": [
        {
          "internalType": "address",
          "name": "_user",
          "type": "address"
        }
      ],
      "name": "getFrozenTokens",
      "outputs": [
        {
          "internalType": "uint256",
          "name": "",
          "type": "uint256"
        }
      ],
      "stateMutability": "view",
      "type": "function"
    },
    {
      "inputs": [],
      "name": "getIdentityRegistry",
      "outputs": [
        {
          "internalType": "address",
          "name": "",
          "type": "address"
        }
      ],
      "stateMutability": "view",
      "type": "function"
    },
    {
      "inputs": [],
      "name": "getWhitelist",
      "outputs": [
        {
          "internalType": "address[]",
          "name": "",
          "type": "address[]"
        }
      ],
      "stateMutability": "view",
      "type": "function"
    },
    {
      "inputs": [],
      "name": "identityRegistry",
      "outputs": [
        {
          "internalType": "contract IIdentityRegistry",
          "name": "",
          "type": "address"
        }
      ],
      "stateMutability": "view",
      "type": "function"
    },
    {
      "inputs": [
        {
          "internalType": "address",
          "name": "spender",
          "type": "address"
        },
        {
          "internalType": "uint256",
          "name": "addedValue",
          "type": "uint256"
        }
      ],
      "name": "increaseAllowance",
      "outputs": [
        {
          "internalType": "bool",
          "name": "",
          "type": "bool"
        }
      ],
      "stateMutability": "nonpayable",
      "type": "function"
    },
    {
      "inputs": [
        {
          "internalType": "address",
          "name": "_agent",
          "type": "address"
        }
      ],
      "name": "isAgent",
      "outputs": [
        {
          "internalType": "bool",
          "name": "",
          "type": "bool"
        }
      ],
      "stateMutability": "view",
      "type": "function"
    },
    {
      "inputs": [
        {
          "internalType": "address",
          "name": "_user",
          "type": "address"
        }
      ],
      "name": "isBlacklisted",
      "outputs": [
        {
          "internalType": "bool",
          "name": "",
          "type": "bool"
        }
      ],
      "stateMutability": "view",
      "type": "function"
    },
    {
      "inputs": [
        {
          "internalType": "address",
          "name": "_user",
          "type": "address"
        }
      ],
      "name": "isFrozen",
      "outputs": [
        {
          "internalType": "bool",
          "name": "",
          "type": "bool"
        }
      ],
      "stateMutability": "view",
      "type": "function"
    },
    {
      "inputs": [
        {
          "internalType": "address",
          "name": "_user",
          "type": "address"
        }
      ],
      "name": "isVerified",
      "outputs": [
        {
          "internalType": "bool",
          "name": "",
          "type": "bool"
        }
      ],
      "stateMutability": "view",
      "type": "function"
    },
    {
      "inputs": [
        {
          "internalType": "address",
          "name": "_user",
          "type": "address"
        }
      ],
      "name": "isWhitelisted",
      "outputs": [
        {
          "internalType": "bool",
          "name": "",
          "type": "bool"
        }
      ],
      "stateMutability": "view",
      "type": "function"
    },
    {
      "inputs": [
        {
          "internalType": "address",
          "name": "to",
          "type": "address"
        },
        {
          "internalType": "uint256",
          "name": "amount",
          "type": "uint256"
        }
      ],
      "name": "mint",
      "outputs": [],
      "stateMutability": "nonpayable",
      "type": "function"
    },
    {
      "inputs": [],
      "name": "name",
      "outputs": [
        {
          "internalType": "string",
          "name": "",
          "type": "string"
        }
      ],
      "stateMutability": "view",
      "type": "function"
    },
    {
      "inputs": [],
      "name": "onchainID",
      "outputs": [
        {
          "internalType": "address",
          "name": "",
          "type": "address"
        }
      ],
      "stateMutability": "view",
      "type": "function"
    },
    {
      "inputs": [],
      "name": "owner",
      "outputs": [
        {
          "internalType": "address",
          "name": "",
          "type": "address"
        }
      ],
      "stateMutability": "view",
      "type": "function"
    },
    {
      "inputs": [],
      "name": "pause",
      "outputs": [],
      "stateMutability": "nonpayable",
      "type": "function"
    },
    {
      "inputs": [],
      "name": "paused",
      "outputs": [
        {
          "internalType": "bool",
          "name": "",
          "type": "bool"
        }
      ],
      "stateMutability": "view",
      "type": "function"
    },
    {
      "inputs": [
        {
          "internalType": "address",
          "name": "_lostWallet",
          "type": "address"
        },
        {
          "internalType": "address",
          "name": "_newWallet",
          "type": "address"
        },
        {
          "internalType": "address",
          "name": "_investorOnchainID",
          "type": "address"
        }
      ],
      "name": "recoveryAddress",
      "outputs": [
        {
          "internalType": "bool",
          "name": "",
          "type": "bool"
        }
      ],
      "stateMutability": "nonpayable",
      "type": "function"
    },
    {
      "inputs": [
        {
          "internalType": "address",
          "name": "_agent",
          "type": "address"
        }
      ],
      "name": "removeAgent",
      "outputs": [],
      "stateMutability": "nonpayable",
      "type": "function"
    },
    {
      "inputs": [
        {
          "internalType": "bytes32",
          "name": "_name",
          "type": "bytes32"
        }
      ],
      "name": "removeDocument",
      "outputs": [],
      "stateMutability": "nonpayable",
      "type": "function"
    },
    {
      "inputs": [],
      "name": "renounceOwnership",
      "outputs": [],
      "stateMutability": "nonpayable",
      "type": "function"
    },
    {
      "inputs": [
        {
          "internalType": "address",
          "name": "_userAddress",
          "type": "address"
        },
        {
          "internalType": "bool",
          "name": "_freeze",
          "type": "bool"
        }
      ],
      "name": "setAddressFrozen",
      "outputs": [],
      "stateMutability": "nonpayable",
      "type": "function"
    },
    {
      "inputs": [
        {
          "internalType": "address",
          "name": "_user",
          "type": "address"
        },
        {
          "internalType": "bool",
          "name": "_blacklisted",
          "type": "bool"
        }
      ],
      "name": "setBlacklist",
      "outputs": [],
      "stateMutability": "nonpayable",
      "type": "function"
    },
    {
      "inputs": [
        {
          "internalType": "address",
          "name": "_newCompliance",
          "type": "address"
        }
      ],
      "name": "setCompliance",
      "outputs": [],
      "stateMutability": "nonpayable",
      "type": "function"
    },
    {
      "inputs": [
        {
          "internalType": "bytes32",
          "name": "_name",
          "type": "bytes32"
        },
        {
          "internalType": "string",
          "name": "_uri",
          "type": "string"
        },
        {
          "internalType": "bytes32",
          "name": "_documentHash",
          "type": "bytes32"
        }
      ],
      "name": "setDocument",
      "outputs": [],
      "stateMutability": "nonpayable",
      "type": "function"
    },
    {
      "inputs": [
        {
          "internalType": "address",
          "name": "_newIdentityRegistry",
          "type": "address"
        }
      ],
      "name": "setIdentityRegistry",
      "outputs": [],
      "stateMutability": "nonpayable",
      "type": "function"
    },
    {
      "inputs": [
        {
          "internalType": "string",
          "name": "_newName",
          "type": "string"
        }
      ],
      "name": "setName",
      "outputs": [],
      "stateMutability": "nonpayable",
      "type": "function"
    },
    {
      "inputs": [
        {
          "internalType": "address",
          "name": "_newOnchainID",
          "type": "address"
        }
      ],
      "name": "setOnchainID",
      "outputs": [],
      "stateMutability": "nonpayable",
      "type": "function"
    },
    {
      "inputs": [
        {
          "internalType": "string",
          "name": "_newSymbol",
          "type": "string"
        }
      ],
      "name": "setSymbol",
      "outputs": [],
      "stateMutability": "nonpayable",
      "type": "function"
    },
    {
      "inputs": [
        {
          "internalType": "address",
          "name": "_user",
          "type": "address"
        },
        {
          "internalType": "bool",
          "name": "_whitelisted",
          "type": "bool"
        }
      ],
      "name": "setWhitelist",
      "outputs": [],
      "stateMutability": "nonpayable",
      "type": "function"
    },
    {
      "inputs": [],
      "name": "symbol",
      "outputs": [
        {
          "internalType": "string",
          "name": "",
          "type": "string"
        }
      ],
      "stateMutability": "view",
      "type": "function"
    },
    {
      "inputs": [],
      "name": "totalSupply",
      "outputs": [
        {
          "internalType": "uint256",
          "name": "",
          "type": "uint256"
        }
      ],
      "stateMutability": "view",
      "type": "function"
    },
    {
      "inputs": [
        {
          "internalType": "address",
          "name": "to",
          "type": "address"
        },
        {
          "internalType": "uint256",
          "name": "amount",
          "type": "uint256"
        }
      ],
      "name": "transfer",
      "outputs": [
        {
          "internalType": "bool",
          "name": "",
          "type": "bool"
        }
      ],
      "stateMutability": "nonpayable",
      "type": "function"
    },
    {
      "inputs": [
        {
          "internalType": "address",
          "name": "from",
          "type": "address"
        },
        {
          "internalType": "address",
          "name": "to",
          "type": "address"
        },
        {
          "internalType": "uint256",
          "name": "amount",
          "type": "uint256"
        }
      ],
      "name": "transferFrom",
      "outputs": [
        {
          "internalType": "bool",
          "name": "",
          "type": "bool"
        }
      ],
      "stateMutability": "nonpayable",
      "type": "function"
    },
    {
      "inputs": [
        {
          "internalType": "address",
          "name": "newOwner",
          "type": "address"
        }
      ],
      "name": "transferOwnership",
      "outputs": [],
      "stateMutability": "nonpayable",
      "type": "function"
    },
    {
      "inputs": [
        {
          "internalType": "address",
          "name": "_userAddress",
          "type": "address"
        },
        {
          "internalType": "uint256",
          "name": "_amount",
          "type": "uint256"
        }
      ],
      "name": "unfreezePartialTokens",
      "outputs": [],
      "stateMutability": "nonpayable",
      "type": "function"
    },
    {
      "inputs": [],
      "name": "unpause",
      "outputs": [],
      "stateMutability": "nonpayable",
      "type": "function"
    },
    {
      "inputs": [],
      "name": "version",
      "outputs": [
        {
          "internalType": "string",
          "name": "",
          "type": "string"
        }
      ],
      "stateMutability": "view",
      "type": "function"
    }
  ],
  "bytecode": "0x6080806040523462000b775760009062007424803803809162000023828562000ba6565b833981019160e08284031262000b745781516001600160401b03811162000b7057836200005291840162000bca565b60208301519093906001600160401b03811162000b6c57816200007791850162000bca565b9260408101519160ff8316830362000b685760608201516001600160401b03811162000b645790620000ab91830162000bca565b620000b96080830162000c40565b91620000d660c0620000ce60a0840162000c40565b920162000c40565b87519091906001600160401b03811162000a4c57600354600181811c9116801562000b59575b602082101462000a2d57601f811162000af5575b50806020601f821160011462000a6c57889162000a60575b508160011b916000199060031b1c1916176003555b86516001600160401b03811162000a4c57600454600181811c9116801562000a41575b602082101462000a2d57601f8111620009c9575b50806020601f82116001146200094057889162000934575b508160011b916000199060031b1c1916176004555b6005546040519290336001600160a01b0382167f8be0079c531659141344cd1fd0a4f28419497f9722a3daafe3b4186f6b6457e08a80a36001600160a81b0319163360ff60a01b19161760055560016006559182906001600160a01b03831615620008e25750601260ff8716116200088d576001600160a01b0316156200076f575b600780546001600160a01b039283166001600160a01b031991821617909155600880549390921692169190911790558051906001600160401b0382116200075b57601154600181811c9116801562000750575b60208210146200073c579081601f849311620006dd575b50602090601f83116001146200066157869262000655575b50508160011b916000199060031b1c1916176011555b601280546001600160a01b0319166001600160a01b039290921691909117905583516001600160401b0381116200055d57601354600181811c911680156200064a575b60208210146200053e57601f8111620005f3575b50602094601f82116001146200057d57948394958293949262000571575b50508160011b916000199060031b1c1916176013555b82516001600160401b0381116200055d57601454600181811c9116801562000552575b60208210146200053e57601f8111620004e7575b506020601f8211600114620004725783948293949262000466575b50508160011b916000199060031b1c1916176014555b60ff80199116816015541617601555338252600f602052600160408320918254161790556010549068010000000000000000821015620004525760018201806010558210156200043e57601090527f1b6847dc741a1b0cd08d278845f9d819d87b734759afb55fe2de5cb82a9ae6720180546001600160a01b0319163317905560405161506a908162000c568239f35b634e487b7160e01b81526032600452602490fd5b634e487b7160e01b81526041600452602490fd5b01519050388062000398565b601484526000805160206200740483398151915290601f198316855b818110620004ce57509583600195969710620004b4575b505050811b01601455620003ae565b015160001960f88460031b161c19169055388080620004a5565b9192602060018192868b0151815501940192016200048e565b6014845260008051602062007404833981519152601f830160051c8101916020841062000533575b601f0160051c01905b8181106200052757506200037d565b84815560010162000518565b90915081906200050f565b634e487b7160e01b84526022600452602484fd5b90607f169062000369565b634e487b7160e01b83526041600452602483fd5b01519050388062000330565b60138452601f19821695600080516020620073e483398151915291855b888110620005da57508360019596979810620005c0575b505050811b0160135562000346565b015160001960f88460031b161c19169055388080620005b1565b919260206001819286850151815501940192016200059a565b60138452600080516020620073e4833981519152601f830160051c810191602084106200063f575b601f0160051c01905b81811062000633575062000312565b84815560010162000624565b90915081906200061b565b90607f1690620002fe565b015190503880620002a5565b60118752869350600080516020620073c483398151915291905b601f1984168510620006c1576001945083601f19811610620006a7575b505050811b01601155620002bb565b015160001960f88460031b161c1916905538808062000698565b818101518355602094850194600190930192909101906200067b565b60118752909150600080516020620073c4833981519152601f840160051c81016020851062000734575b90849392915b601f830160051c82018110620007255750506200028d565b8881558594506001016200070d565b508062000707565b634e487b7160e01b86526022600452602486fd5b90607f169062000276565b634e487b7160e01b85526041600452602485fd5b6040519091506001600160401b03611704820190811190821117620008795761170462005cc082396001600160a01b03821661170482019081528190036020019086f080156200086e576001600160a01b031690813b156200084957604051631ffad50160e11b8152306004820152868160248183875af180156200084d5762000858575b50813b15620008495760405163f2fde38b60e01b8152336004820152868160248183875af180156200084d5790879162000831575b505062000223565b6200083c9062000b7c565b6200084957853862000829565b8580fd5b6040513d89823e3d90fd5b620008669096919662000b7c565b9438620007f4565b6040513d87823e3d90fd5b634e487b7160e01b86526041600452602486fd5b60405162461bcd60e51b815260206004820152602760248201527f45524333363433546f6b656e3a20446563696d616c732063616e6e6f742065786044820152660c6cacac84062760cb1b6064820152608490fd5b62461bcd60e51b815260206004820152602760248201527f45524333363433546f6b656e3a20496e76616c6964206964656e7469747920726044820152666567697374727960c81b6064820152608490fd5b9050880151386200018c565b600489528892507f8a35acfbc15ff81a39ae7d344fd709f28e8600b4aa8c65c6b64bfe7fe36bd19b905b8a601f1984168510620009b157506001935082601f1981161062000997575b5050811b01600455620001a1565b8a015160001960f88460031b161c19169055388062000989565b8101518255602093840193600190920191016200096a565b600488527f8a35acfbc15ff81a39ae7d344fd709f28e8600b4aa8c65c6b64bfe7fe36bd19b601f830160051c81016020841062000a25575b601f830160051c8201811062000a1957505062000174565b89815560010162000a01565b508062000a01565b634e487b7160e01b88526022600452602488fd5b90607f169062000160565b634e487b7160e01b87526041600452602487fd5b90508901513862000128565b600389528892507fc2575a0e9e593c00f959f8c92f12db2869c3395a3b0502d05e2516446f71f85b905b8b601f198416851062000add57506001935082601f1981161062000ac3575b5050811b016003556200013d565b8b015160001960f88460031b161c19169055388062000ab5565b81015182556020938401936001909201910162000a96565b600388527fc2575a0e9e593c00f959f8c92f12db2869c3395a3b0502d05e2516446f71f85b601f830160051c81016020841062000b51575b601f830160051c8201811062000b4557505062000110565b89815560010162000b2d565b508062000b2d565b90607f1690620000fc565b8480fd5b8380fd5b8280fd5b5080fd5b80fd5b600080fd5b6001600160401b03811162000b9057604052565b634e487b7160e01b600052604160045260246000fd5b601f909101601f19168101906001600160401b0382119082101762000b9057604052565b919080601f8401121562000b775782516001600160401b03811162000b90576020906040519262000c0583601f19601f850116018562000ba6565b81845282828701011162000b775760005b81811062000c2c57508260009394955001015290565b858101830151848201840152820162000c16565b51906001600160a01b038216820362000b775756fe6040608081526004908136101561001557600080fd5b600091823560e01c908163010648ca14612a7b57816306fdde0314612a5d578163095ea7b314612a22578163125c4a33146129f8578163134e18f414610d1e578163153b0d1e146129dc578163158b1a57146129a457816318160ddd146129855781631a7af3791461292b5781631d1113c4146128975781631fe56f7d1461286d5781631ffbb0641461282f57816323b872dd1461274e57816325dda4b51461268e578163313ce5671461266c578163338d6c301461260d57816338d24fab1461250e57816339509351146124ad5781633af32abf1461246f5781633d1ddc5b1461236e5781633f4ba83a146122a957816340c10f191461215757816342a47abc146120675781634710362d1461200f5781634a6cc67714611fa157816353d6fd5914611f5057816354fd4d5014611e69578163565c99ac14611db25781635c975abb14611d8b5781636290865d146105905781636857310714611bd45781636c24a76f14611b8b57816370a0823114611b54578163715018a614611af65781637ad7a88514611a2b5781638165e932146119325781638456cb59146118a857816384e798421461181f57816388d695b2146117695781638da5cb5b146117405781639285948a1461143f57816395d89b411461140e57816397a6278e146113805781639dc29fac146113295781639fa5f50b146112765781639fc1d0e714611230578163a457c2d714611171578163a9059cbb14611105578163aba63705146110dc578163b10d6b411461106b578163b84c824614610de2578163b9209e3314610d47578163bc4d861b14610d1e578163bfbb3e3e14610c40578163c350184814610bf0578163c47f00271461092c578163c69c09cf146108d1578163cbf3f86114610808578163d01f63f5146107a9578163d821f92d146106f8578163dd62ed3e146106aa578163df2d67391461068b578163e58398361461064d578163eac3fda4146105b9578163ef040bb114610590578163f2fde38b146104c3578163f8981789146103f457508063fc7e5fa81461035a5763fe575a871461031a57600080fd5b346103565760203660031901126103565760209160ff9082906001600160a01b03610343612b5c565b168152600d855220541690519015158152f35b5080fd5b5034610356576103959061036d36612be7565b92949093610379613980565b6005546001600160a01b031633149081156103de575b50612d0c565b6103a08282146130ce565b845b8181106103ad578580f35b806103d86103c66103c1600194868a613126565b61314c565b6103d1838789613126565b3590613b12565b016103a2565b60ff9150338852600f602052872054163861038f565b9050346104bf5760203660031901126104bf5761040f612b5c565b610417613980565b61041f61415e565b6001600160a01b031691821561046a575050600880546001600160a01b031916821790557f7f3a888862559648ec01d97deb7b5012bff86dc91e654a1de397170db40e35b68280a280f35b906020608492519162461bcd60e51b8352820152602960248201527f45524333363433546f6b656e3a20496e76616c696420636f6d706c69616e63656044820152680818dbdb9d1c9858dd60ba1b6064820152fd5b8280fd5b9050346104bf5760203660031901126104bf576104de612b5c565b906104e761415e565b6001600160a01b0391821692831561053e575050600554826bffffffffffffffffffffffff60a01b821617600555167f8be0079c531659141344cd1fd0a4f28419497f9722a3daafe3b4186f6b6457e0600080a380f35b906020608492519162461bcd60e51b8352820152602660248201527f4f776e61626c653a206e6577206f776e657220697320746865207a65726f206160448201526564647265737360d01b6064820152fd5b50503461035657816003193601126103565760085490516001600160a01b039091168152602090f35b82843461064a578060031936011261064a578151918291601054808552602080950194601083527f1b6847dc741a1b0cd08d278845f9d819d87b734759afb55fe2de5cb82a9ae67292905b82821061062a57610626868661061c828b0383612dc2565b5191829182612c66565b0390f35b83546001600160a01b031687529586019560019384019390910190610604565b80fd5b5050346103565760203660031901126103565760209160ff9082906001600160a01b03610678612b5c565b1681526009855220541690519015158152f35b5050346103565781600319360112610356576020906010549051908152f35b5050346103565780600319360112610356576020916106c7612b5c565b826106d0612b72565b6001600160a01b03928316845260018652922091166000908152908352819020549051908152f35b919050346104bf576020928360031936011261064a5783610717612b5c565b6007548451637e42683b60e01b81526001600160a01b039283169681019690965285916024918391165afa92831561079d57819361075d575b505061ffff905191168152f35b909192508381813d8311610796575b6107768183612dc2565b8101031261035657519061ffff8216820361064a57509061ffff38610750565b503d61076c565b509051903d90823e3d90fd5b82843461064a578060031936011261064a57600c546107c781613300565b915b8181106107dd578351806106268582612c66565b806107e9600192613369565b838060a01b0391549060031b1c16610801828661340e565b52016107c9565b9050346104bf5760203660031901126104bf57610823612b5c565b61082b613980565b61083361415e565b6001600160a01b031691821561087e575050600780546001600160a01b031916821790557fd2be862d755bca7e0d39772b2cab3a5578da9c285f69199f4c063c2294a7f36c8280a280f35b906020608492519162461bcd60e51b8352820152602760248201527f45524333363433546f6b656e3a20496e76616c6964206964656e7469747920726044820152666567697374727960c81b6064820152fd5b5050346103565761090e610913916108e836612b88565b9290916108f3613980565b6005546001600160a01b031633149081156109165750612d0c565b613e5d565b80f35b60ff9150338752600f602052862054163861038f565b9050346104bf5760209081600319360112610bec576001600160401b03918135838111610be8576109609036908401612ae7565b92909361096b613980565b61097361415e565b8315610b9b578311610b885761098a601354612e35565b601f8111610b2f575b508583601f8111600114610aad57806109c1928991610aa2575b508160011b916000199060031b1c19161790565b6013555b6109cd612f35565b9160ff6015541690878751809463054fd4d560e41b825281305afa928315610a985791610a6493917f6a1105ac8148a3c319adbc369f9072573e8a11d3a3d195e067e7c40767ec54d198938a93610a70575b50610a539060018060a01b036012541696610a4686519a8b9a60a08c5260a08c019161362a565b91898303908a0152612b37565b928601528482036060860152612b37565b9060808301520390a180f35b610a53919350610a91903d808d833e610a898183612dc2565b810190613422565b9290610a1f565b87513d8a823e3d90fd5b9050860135386109ad565b50601387527f66de8ffda797e3de9c05e8fc57b3bf0ec28a930d40b0d285d93c06501cf6a0909084601f198116895b86828210610b1657505010610afc575b5050600183811b016013556109c5565b850135600019600386901b60f8161c191690553880610aec565b8985013586556001909501949384019388935001610adc565b610b789060136000527f66de8ffda797e3de9c05e8fc57b3bf0ec28a930d40b0d285d93c06501cf6a090601f860160051c810191858710610b7e575b601f0160051c0190613613565b38610993565b9091508190610b6b565b634e487b7160e01b865260419052602485fd5b5060849185519162461bcd60e51b8352820152602260248201527f45524333363433546f6b656e3a204e616d652063616e6e6f7420626520656d70604482015261747960f01b6064820152fd5b8580fd5b8380fd5b9050346104bf5760203660031901126104bf57610c246109139260018060a01b03600554163314908115610c2a5750612d0c565b35614ad8565b60ff9150338652600f602052852054163861038f565b9050346104bf5760203660031901126104bf5780356001600160401b038111610bec57610c709036908301612bb7565b91909260018060a01b036005541633148015610d09575b610c9090612d0c565b8215610cbc575050825b818110610ca5578380f35b80610cb6610c246001938587613126565b01610c9a565b906020608492519162461bcd60e51b8352820152602160248201527f45524333363433546f6b656e3a20496e76616c6964206e616d657320617272616044820152607960f81b6064820152fd5b50338552600f6020528085205460ff16610c87565b50503461035657816003193601126103565760075490516001600160a01b039091168152602090f35b919050346104bf5760203660031901126104bf576020610d65612b5c565b600754835163b9209e3360e01b81526001600160a01b039283169581019590955284916024918391165afa918215610dd85760209392610da9575b50519015158152f35b610dca919250833d8511610dd1575b610dc28183612dc2565b8101906135fb565b9038610da0565b503d610db8565b81513d85823e3d90fd5b9050346104bf5760209081600319360112610bec576001600160401b03908035828111610be857610e169036908301612ae7565b9092610e20613980565b610e2861415e565b811561101c57811161100957610e3f601454612e35565b601f8111610fbb575b508581601f8111600114610f395780610e75928991610f2e57508160011b916000199060031b1c19161790565b6014555b610e81612e6f565b9360ff6015541691878751809563054fd4d560e41b825281305afa938415610a9857927f6a1105ac8148a3c319adbc369f9072573e8a11d3a3d195e067e7c40767ec54d19792610efe97969592610a64958b94610f0b575b5090610a539160018060a01b03601254169786519a8b9a60a08c5260a08c0190612b37565b928a8403908b015261362a565b610a5392919450610f26908c3d8091833e610a898183612dc2565b939091610ed9565b9050850135386109ad565b50601487527fce6d7b5282bd9a3661ae061feed1dbda4e52ab073b1f9285be6e155d9c38d4ec9082601f198116895b88828210610fa257505010610f88575b5050600181811b01601455610e79565b840135600019600384901b60f8161c191690553880610f78565b8885013586556001909501949384019386935001610f68565b6110039060146000527fce6d7b5282bd9a3661ae061feed1dbda4e52ab073b1f9285be6e155d9c38d4ec601f840160051c810191878510610b7e57601f0160051c0190613613565b38610e48565b634e487b7160e01b865260418252602486fd5b855162461bcd60e51b81528084018690526024808201527f45524333363433546f6b656e3a2053796d626f6c2063616e6e6f7420626520656044820152636d70747960e01b6064820152608490fd5b9050346104bf5760203660031901126104bf576110cf92829135815260166020522081519161109983612da7565b806110a383612fd4565b938481526002600185015494856020840152015492839101528051948594606086526060860190612b37565b9260208501528301520390f35b50503461035657816003193601126103565760125490516001600160a01b039091168152602090f35b505034610356578060031936011261035657611165602092611125612b5c565b61115f61115760243593611137613980565b61113f614108565b338152808852868082205491600a8a5220549061316d565b831115613190565b336148e0565b60016006555160018152f35b9050823461064a578260031936011261064a5761118c612b5c565b91836024359261119a613980565b6111a333613a6b565b33815260016020522060018060a01b0384166000526020528360002054908282106111df576020856111d88585038733614d76565b5160018152f35b608490602086519162461bcd60e51b8352820152602560248201527f45524332303a2064656372656173656420616c6c6f77616e63652062656c6f77604482015264207a65726f60d81b6064820152fd5b5050346103565761126d60ff6020938361126861124c36612c31565b9591939094611259613980565b338152600f8a52205416613483565b6144b6565b90519015158152f35b82843461064a578060031936011261064a579080519182906017549182855260208095018093601784527fc624b66cc0138b8fabc209247f72d758e1cf3343756d543badbf24212bed8c1590845b81811061131557505050816112da910382612dc2565b83519485948186019282875251809352850193925b8281106112fe57505050500390f35b8351855286955093810193928101926001016112ef565b8254845292880192600192830192016112c4565b5050346103565780600319360112610356576109139061136e61134a612b5c565b91611353613980565b6005546001600160a01b03163314908115610c2a5750612d0c565b611377816146b1565b6024359061473a565b505034610356576020366003190112610356576113e761139e612b5c565b6113a6613980565b6113ae61415e565b6001600160a01b03818116808652600f602052938520546113e291906113d69060ff16613233565b6005541684141561328a565b6141b6565b7fed9c8ad8d5a0a66898ea49d2956929c93ae2e8bd50281b2ed897c5d1a6737e0b8280a280f35b5050346103565781600319360112610356576106269061142c612f35565b9051918291602083526020830190612b37565b82843461064a57606036600319011261064a5761145a612b5c565b611462612b72565b604480356001600160a01b038181169490939185900361173b57611484613980565b338652602097600f895261149d60ff8989205416613483565b8482169687156116ef578584169586156116af57871561166f57868914611621578a602491600754168b519283809263b9209e3360e01b82528b888301525afa9081156116175782916115fa575b50156115aa57808861150d9252808b52898082205491600a8d5220549061316d565b93841561155c575050606094927ff0c9129a94f30f1caaceb63e44b9811d0a3edf1d6c23757f346093af5553fed0969492611547926148e0565b85519283528683015284820152a15160018152f35b885162461bcd60e51b81529182018a9052602360248301527f45524333363433546f6b656e3a204e6f2062616c616e636520746f207265636f90820152623b32b960e91b6064820152608490fd5b885162461bcd60e51b81528083018b9052602560248201527f45524333363433546f6b656e3a204e65772077616c6c6574206e6f742076657281870152641a599a595960da1b6064820152608490fd5b61161191508b3d8d11610dd157610dc28183612dc2565b8b6114eb565b8a513d84823e3d90fd5b895162461bcd60e51b81528084018c9052602360248201527f45524333363433546f6b656e3a2053616d652077616c6c657420616464726573818801526273657360e81b6064820152608490fd5b6064837f45524333363433546f6b656e3a20496e76616c6964206f6e636861696e204944888e808f519462461bcd60e51b86528501526024840152820152fd5b6064837f45524333363433546f6b656e3a20496e76616c6964206e65772077616c6c6574888e808f519462461bcd60e51b86528501526024840152820152fd5b885162461bcd60e51b81528083018b9052602160248201527f45524333363433546f6b656e3a20496e76616c6964206c6f73742077616c6c6581870152601d60fa1b6064820152608490fd5b600080fd5b50503461035657816003193601126103565760055490516001600160a01b039091168152602090f35b5050346103565761177936612be7565b91909293611785613980565b6117908383146130ce565b8590865b8481106117ff5750906117be6117c592338952886020528089205490600a6020528920549061316d565b10156135a4565b845b8181106117d2578580f35b806117f96117e66103c1600194868a613126565b6117f1838789613126565b3590336148e0565b016117c7565b9161181860019161181185888a613126565b3590613597565b9201611794565b5050346103565760203660031901126103565761188161183d612b5c565b611845613980565b61184d61415e565b6001600160a01b0381169261187c9060ff9061186a8615156134e8565b858752600f6020528620541615613540565b61489a565b7ff68e73cec97f2d70aa641fb26e87a4383686e2efacb648f2165aeb02ac562ec58280a280f35b5050346103565781600319360112610356576005547f62e78cea01bee320cd4e420270b5ea74000d11b0c9f74754ebdbfc544b05a258916020916001600160a01b0381163314801561191e575b6118fe90612d0c565b611906613980565b60ff60a01b1916600160a01b1760055551338152a180f35b50338552600f83528185205460ff166118f5565b8391503461035657602090816003193601126104bf5780356001600160401b038111610bec5761196785928592369101612bb7565b611973819392936132e9565b9061198085519283612dc2565b80825261198c816132e9565b8287019490601f1901368637835b8281106119e15750505083519485948186019282875251809352850193925b8281106119c857505050500390f35b83511515855286955093810193928101926001016119b9565b95969495929493926001906001600160a01b03611a026103c1838787613126565b168552600b865260ff8986205416611a1a828961340e565b90151590520196959492939661199a565b9050346104bf576020906020600319360112610bec578035906001600160401b038211611af257611a5e91369101612bb7565b611a69939193613980565b611a7161415e565b611a7c8115156131dc565b845b818110611a89578580f35b80611a9a6103c16001938589613126565b611ac8838060a01b03821691611ab18315156134e8565b828a52600f885261187c60ff888c20541615613540565b7ff68e73cec97f2d70aa641fb26e87a4383686e2efacb648f2165aeb02ac562ec58880a201611a7e565b8480fd5b833461064a578060031936011261064a57611b0f61415e565b600580546001600160a01b031981169091556000906001600160a01b03167f8be0079c531659141344cd1fd0a4f28419497f9722a3daafe3b4186f6b6457e08280a380f35b5050346103565760203660031901126103565760209181906001600160a01b03611b7c612b5c565b16815280845220549051908152f35b50503461035657602036600319011261035657602091611bcd906001600160a01b03611bb5612b5c565b168152808452828082205491600a865220549061316d565b9051908152f35b9050346104bf57611be436612be7565b611bf19593919295613980565b6005546001600160a01b039690871633148015611d76575b611c1290612d0c565b611c1d8282146130ce565b875b818110611c2a578880f35b611c40611c3b6103c1838588613126565b614312565b611c4e6103c1828487613126565b88611c5a838689613126565b359116908115611d3357600080516020614ff58339815191528b916002611c82828254613597565b90558383526020908382528a84208181540190558a51908152a3888860085416611cb06103c1848689613126565b611cbb84878a613126565b35823b15610bec578951635f8dead360e01b81526001600160a01b03909216828c0190815260208101919091529091839183919082908490829060400103925af18015611d2957611d11575b5050600101611c1f565b611d1a90612d7e565b611d25578838611d07565b8880fd5b88513d84823e3d90fd5b875162461bcd60e51b81526020818b0152601f60248201527f45524332303a206d696e7420746f20746865207a65726f2061646472657373006044820152606490fd5b50338852600f6020528488205460ff16611c09565b50503461035657816003193601126103565760209060ff60055460a01c1690519015158152f35b50503461035657611dc236612be7565b919092611dcd613980565b6005546001600160a01b0395611dee9187163314908115611e535750612d0c565b611df98383146130ce565b855b828110611e06578680f35b80611e2387611e1b6103c16001958888613126565b161515613077565b611e4d611e346103c1838787613126565b611e47611e4284898b613126565b613160565b90613c6f565b01611dfb565b60ff9150338952600f602052882054163861038f565b82843461064a578060031936011261064a575080516011549091826000611e8f84612e35565b80835260209460019086600182169182600014611f2e575050600114611ed1575b50506106269291611ec2910385612dc2565b51928284938452830190612b37565b9085925060116000527f31ecc21a745e3968a04e9570e4425bc18fa8019c68028196b546d1669c200c68916000925b828410611f165750505082010181611ec2611eb0565b8054848a018601528895508794909301928101611f00565b60ff19168682015292151560051b85019092019250839150611ec29050611eb0565b50503461035657611f9c61091391611f6736612b88565b929091611f72613980565b6005546001600160a01b0391611f939183163314908115611e535750612d0c565b82161515613077565b613ec0565b50503461035657611fb59061036d36612be7565b611fc08282146130ce565b845b818110611fcd578580f35b80611fe6611fe16103c1600194868a613126565b6146b1565b612009611ff76103c183868a613126565b612002838789613126565b359061473a565b01611fc2565b505034610356576120239061036d36612be7565b61202e8282146130ce565b845b81811061203b578580f35b8061206161204f6103c1600194868a613126565b61205a838789613126565b3590614034565b01612030565b919050346104bf5761207836612cab565b9091612088979597969496613980565b338952602096600f6020526120a260ff878c205416613483565b8181148061214e575b6120b4906130ce565b895b8181106120c1578a80f35b6120f26120d26103c183858e613126565b6120e06103c184878b613126565b6120eb84888a613126565b35916144b6565b156120ff576001016120b6565b865162461bcd60e51b81528089018a90526024808201527f45524333363433546f6b656e3a20466f72636564207472616e736665722066616044820152631a5b195960e21b6064820152608490fd5b508183146120ab565b919050346104bf57806003193601126104bf57612172612b5c565b6024359061217e613980565b6005546001600160a01b0390811633148015612294575b61219e90612d0c565b6121a782614312565b808216801561225157908392916121c18895600254613597565b6002558085528460205285852084815401905584600080516020614ff583398151915260208851878152a36008541690813b15610bec578451635f8dead360e01b81526001600160a01b039091169581019586526020860192909252909384919082908490829060400103925af1908115612248575061223f575080f35b61091390612d7e565b513d84823e3d90fd5b845162461bcd60e51b8152602081880152601f60248201527f45524332303a206d696e7420746f20746865207a65726f2061646472657373006044820152606490fd5b50338652600f6020528386205460ff16612195565b9050346104bf57826003193601126104bf57600554906001600160a01b03821633148015612359575b6122db90612d0c565b60ff8260a01c161561231f575060ff60a01b1916600555513381527f5db9ee0a495bf2e6ff9c91a7834c1ba4fdd244a5e8aa4e537bd38aeae4b073aa90602090a180f35b606490602084519162461bcd60e51b8352820152601460248201527314185d5cd8589b194e881b9bdd081c185d5cd95960621b6044820152fd5b50338452600f6020528284205460ff166122d2565b9050346104bf5760203660031901126104bf57612389612b5c565b612391613980565b61239961415e565b601280546001600160a01b0319166001600160a01b039290921691821790556123c0612e6f565b916123c9612f35565b60ff6015541690868651809463054fd4d560e41b825281305afa9283156124655792610a64927f6a1105ac8148a3c319adbc369f9072573e8a11d3a3d195e067e7c40767ec54d197926124379796958a93612445575b50610a5390845198899860a08a5260a08a0190612b37565b9088820360208a0152612b37565b610a5391935061245e903d808d833e610a898183612dc2565b929061241f565b86513d89823e3d90fd5b5050346103565760203660031901126103565760209160ff9082906001600160a01b0361249a612b5c565b168152600b855220541690519015158152f35b5050346103565780600319360112610356576111d86020926125076124d0612b5c565b916124d9613980565b6124e233613a6b565b338152600186528481206001600160a01b038416825286528490205460243590613597565b9033614d76565b9050346104bf5761251e36612cab565b9361254560059893969792989360018060a01b036005541633149081156125f75750612d0c565b6125508682146130ce565b61255b8582146130ce565b885b818110612568578980f35b61257381838a613126565b3590878110156125e45780851b860135601e19873603018112156125e05786018035906001600160401b0382116125dc576020019080360382136125dc576001936125d06125d6936125c78f8d8891613126565b35933691612dfe565b9061364b565b0161255d565b8c80fd5b8b80fd5b634e487b7160e01b8b526032845260248bfd5b60ff9150338c52600f6020528b2054163861038f565b82843461064a578060031936011261064a57600e5461262b81613300565b915b818110612641578351806106268582612c66565b8061264d600192613332565b838060a01b0391549060031b1c16612665828661340e565b520161262d565b50503461035657816003193601126103565760209060ff601554169051908152f35b9050346104bf576020906020600319360112610bec578035906001600160401b038211611af2576126c191369101612bb7565b6126cc939193613980565b6126d461415e565b6126df8115156131dc565b845b8181106126ec578580f35b80846127246127016103c1600195878b613126565b6113e28a6113d660ff8a898060a01b0393600f858816998a835252205416613233565b7fed9c8ad8d5a0a66898ea49d2956929c93ae2e8bd50281b2ed897c5d1a6737e0b8880a2016126e1565b8383346103565761275e36612c31565b91612767613980565b61276f614108565b8360018060a01b038216958681526020968188526127a361279b84842054600a8b52858520549061316d565b871115613190565b815260018752818120338252875220549560001987036127ca575b509061116592916148e0565b8387106127ec57506127e483611165959697033383614d76565b8594936127be565b845162461bcd60e51b8152908101869052601d60248201527f45524332303a20696e73756666696369656e7420616c6c6f77616e63650000006044820152606490fd5b5050346103565760203660031901126103565760209160ff9082906001600160a01b0361285a612b5c565b168152600f855220541690519015158152f35b5050346103565780600319360112610356576109139061288e61134a612b5c565b60243590614034565b505034610356576128a736612be7565b9190926128b2613980565b6005546001600160a01b03956128d39187163314908115611e535750612d0c565b6128de8383146130ce565b855b8281106128eb578680f35b8061290087611e1b6103c16001958888613126565b6129256129116103c1838787613126565b61291f611e4284898b613126565b90613ec0565b016128e0565b5050346103565761293f9061036d36612be7565b61294a8282146130ce565b845b818110612957578580f35b8061297f61296b6103c1600194868a613126565b612979611e4284888a613126565b90613e5d565b0161294c565b5050346103565781600319360112610356576020906002549051908152f35b5050346103565760203660031901126103565760209181906001600160a01b036129cc612b5c565b168152600a845220549051908152f35b505034610356576129f361091391611f6736612b88565b613c6f565b50503461035657806003193601126103565761091390612a1961134a612b5c565b60243590613b12565b5050346103565780600319360112610356576020906111d8612a42612b5c565b612a4a613980565b612a5333613a6b565b6024359033614d76565b5050346103565781600319360112610356576106269061142c612e6f565b919050346104bf5760603660031901126104bf57602435916001600160401b038311610bec57612ae0612ad592612ab86109139536908501612ae7565b94909160018060a01b03600554163314908115611e535750612d0c565b604435933691612dfe565b903561364b565b9181601f8401121561173b578235916001600160401b03831161173b576020838186019501011161173b57565b60005b838110612b275750506000910152565b8181015183820152602001612b17565b90602091612b5081518092818552858086019101612b14565b601f01601f1916010190565b600435906001600160a01b038216820361173b57565b602435906001600160a01b038216820361173b57565b604090600319011261173b576004356001600160a01b038116810361173b5790602435801515810361173b5790565b9181601f8401121561173b578235916001600160401b03831161173b576020808501948460051b01011161173b57565b604060031982011261173b576001600160401b039160043583811161173b5782612c1391600401612bb7565b9390939260243591821161173b57612c2d91600401612bb7565b9091565b606090600319011261173b576001600160a01b0390600435828116810361173b5791602435908116810361173b579060443590565b602090602060408183019282815285518094520193019160005b828110612c8e575050505090565b83516001600160a01b031685529381019392810192600101612c80565b90606060031983011261173b576001600160401b0360043581811161173b5783612cd791600401612bb7565b9390939260243583811161173b5782612cf291600401612bb7565b9390939260443591821161173b57612c2d91600401612bb7565b15612d1357565b60405162461bcd60e51b815260206004820152603960248201527f45524333363433546f6b656e3a204f6e6c79206f776e6572206f72206167656e60448201527f74732063616e2063616c6c20746869732066756e6374696f6e000000000000006064820152608490fd5b6001600160401b038111612d9157604052565b634e487b7160e01b600052604160045260246000fd5b606081019081106001600160401b03821117612d9157604052565b90601f801991011681019081106001600160401b03821117612d9157604052565b6001600160401b038111612d9157601f01601f191660200190565b929192612e0a82612de3565b91612e186040519384612dc2565b82948184528183011161173b578281602093846000960137010152565b90600182811c92168015612e65575b6020831014612e4f57565b634e487b7160e01b600052602260045260246000fd5b91607f1691612e44565b6040519060008260135491612e8383612e35565b80835292602090600190818116908115612f115750600114612eb0575b5050612eae92500383612dc2565b565b91509260136000527f66de8ffda797e3de9c05e8fc57b3bf0ec28a930d40b0d285d93c06501cf6a090936000925b828410612ef95750612eae9450505081016020013880612ea0565b85548885018301529485019487945092810192612ede565b91505060209250612eae94915060ff191682840152151560051b8201013880612ea0565b6040519060008260145491612f4983612e35565b80835292602090600190818116908115612f115750600114612f73575050612eae92500383612dc2565b91509260146000527fce6d7b5282bd9a3661ae061feed1dbda4e52ab073b1f9285be6e155d9c38d4ec936000925b828410612fbc5750612eae9450505081016020013880612ea0565b85548885018301529485019487945092810192612fa1565b90604051918260008254612fe781612e35565b908184526020946001916001811690816000146130555750600114613016575b505050612eae92500383612dc2565b600090815285812095935091905b81831061303d575050612eae9350820101388080613007565b85548884018501529485019487945091830191613024565b92505050612eae94925060ff191682840152151560051b820101388080613007565b1561307e57565b60405162461bcd60e51b815260206004820152602260248201527f45524333363433546f6b656e3a20496e76616c69642075736572206164647265604482015261737360f01b6064820152608490fd5b156130d557565b60405162461bcd60e51b8152602060048201526024808201527f45524333363433546f6b656e3a204172726179206c656e67746873206d69736d6044820152630c2e8c6d60e31b6064820152608490fd5b91908110156131365760051b0190565b634e487b7160e01b600052603260045260246000fd5b356001600160a01b038116810361173b5790565b35801515810361173b5790565b9190820391821161317a57565b634e487b7160e01b600052601160045260246000fd5b1561319757565b60405162461bcd60e51b815260206004820152601d60248201527f455243333634333a20496e73756666696369656e742042616c616e63650000006044820152606490fd5b156131e357565b60405162461bcd60e51b815260206004820152602260248201527f45524333363433546f6b656e3a20496e76616c6964206167656e747320617272604482015261617960f01b6064820152608490fd5b1561323a57565b60405162461bcd60e51b815260206004820152602260248201527f45524333363433546f6b656e3a204167656e7420646f6573206e6f74206578696044820152611cdd60f21b6064820152608490fd5b1561329157565b60405162461bcd60e51b815260206004820152602a60248201527f45524333363433546f6b656e3a2043616e6e6f742072656d6f7665206f776e656044820152691c88185cc81859d95b9d60b21b6064820152608490fd5b6001600160401b038111612d915760051b60200190565b9061330a826132e9565b6133176040519182612dc2565b8281528092613328601f19916132e9565b0190602036910137565b600e5481101561313657600e6000527fbb7b4a454dc3493923482f07822329ed19e8244eff582cc204f8554c3620c3fd0190600090565b600c5481101561313657600c6000527fdf6966c971051c3d54ec59162606531493a51404a002842f56009d7e5cf4a8c70190600090565b6017548110156131365760176000527fc624b66cc0138b8fabc209247f72d758e1cf3343756d543badbf24212bed8c150190600090565b6010548110156131365760106000527f1b6847dc741a1b0cd08d278845f9d819d87b734759afb55fe2de5cb82a9ae6720190600090565b80518210156131365760209160051b010190565b60208183031261173b578051906001600160401b03821161173b570181601f8201121561173b57805161345481612de3565b926134626040519485612dc2565b8184526020828401011161173b576134809160208085019101612b14565b90565b1561348a57565b60405162461bcd60e51b815260206004820152603060248201527f45524333363433546f6b656e3a204f6e6c79206167656e74732063616e20636160448201526f3636103a3434b990333ab731ba34b7b760811b6064820152608490fd5b156134ef57565b60405162461bcd60e51b815260206004820152602360248201527f45524333363433546f6b656e3a20496e76616c6964206167656e74206164647260448201526265737360e81b6064820152608490fd5b1561354757565b60405162461bcd60e51b815260206004820152602260248201527f45524333363433546f6b656e3a204167656e7420616c72656164792065786973604482015261747360f01b6064820152608490fd5b9190820180921161317a57565b156135ab57565b60405162461bcd60e51b815260206004820152602260248201527f45524333363433546f6b656e3a20496e73756666696369656e742062616c616e604482015261636560f01b6064820152608490fd5b9081602091031261173b5751801515810361173b5790565b81811061361e575050565b60008155600101613613565b908060209392818452848401376000828201840152601f01601f1916010190565b909291928115613927578051156138cf578315613876576000938285526020601681526040916002838820015415613821575b825161368981612da7565b84815282810182815284820198428a52878152601685528581209251908151916001600160401b03831161380d576136c18554612e35565b601f81116137df575b508691601f841160011461375657928060029593613722937fb4c22d60cd550a815744f04e3ff5278bf19684565ee00e2b084041b6024bd6f69d9e9f969261374b575b50508160011b916000199060031b1c19161790565b84555b516001840155519101556137428351948486958652850190612b37565b918301520390a2565b01519050388061370d565b9190601f198416868452888420935b8181106137c857509260019285927fb4c22d60cd550a815744f04e3ff5278bf19684565ee00e2b084041b6024bd6f69d9e9f9660029896106137af575b505050811b018455613725565b015160001960f88460031b161c191690553880806137a2565b929389600181928786015181550195019301613765565b61380790868452888420601f860160051c8101918a8710610b7e57601f0160051c0190613613565b386136ca565b634e487b7160e01b82526041600452602482fd5b601754600160401b8110156138625761385b6138448260018994016017556133a0565b819391549060031b91821b91600019901b19161790565b905561367e565b634e487b7160e01b88526041600452602488fd5b60405162461bcd60e51b815260206004820152602b60248201527f45524333363433546f6b656e3a20446f63756d656e7420686173682063616e6e60448201526a6f7420626520656d70747960a81b6064820152608490fd5b60405162461bcd60e51b815260206004820152602a60248201527f45524333363433546f6b656e3a20446f63756d656e74205552492063616e6e6f6044820152697420626520656d70747960b01b6064820152608490fd5b60405162461bcd60e51b815260206004820152602b60248201527f45524333363433546f6b656e3a20446f63756d656e74206e616d652063616e6e60448201526a6f7420626520656d70747960a81b6064820152608490fd5b60ff60055460a01c1661398f57565b60405162461bcd60e51b815260206004820152601060248201526f14185d5cd8589b194e881c185d5cd95960821b6044820152606490fd5b156139ce57565b60405162461bcd60e51b815260206004820152601e60248201527f45524333363433546f6b656e3a2053656e6465722069732066726f7a656e00006044820152606490fd5b15613a1a57565b60405162461bcd60e51b815260206004820152602360248201527f45524333363433546f6b656e3a2053656e64657220697320626c61636b6c69736044820152621d195960ea1b6064820152608490fd5b612eae9060018060a01b038116806000526009602052613a9360ff60406000205416156139c7565b600052600d602052613aad60ff6040600020541615613a13565b614ce8565b15613ab957565b60405162461bcd60e51b815260206004820152602b60248201527f45524333363433546f6b656e3a20416d6f756e74206d7573742062652067726560448201526a061746572207468616e20360ac1b6064820152608490fd5b9091906001600160a01b0316613b29811515613077565b613b34831515613ab2565b600092818452602090848252604094613b5886822054600a8552878320549061316d565b8211613c1457838152600a8352613b728287832054613597565b848252600a84528682205411613bc457948086857fa065e63c631c86f1b9f66a4a2f63f2093bf1c2168d23290259dbd969e0222a4596979852600a855220613bbb838254613597565b905551908152a2565b855162461bcd60e51b8152600481018490526024808201527f45524333363433546f6b656e3a2046726f7a656e20746f6b656e73206f766572604482015263666c6f7760e01b6064820152608490fd5b855162461bcd60e51b815260048101849052602e60248201527f45524333363433546f6b656e3a20416d6f756e7420657863656564732061766160448201526d696c61626c652062616c616e636560901b6064820152608490fd5b6001600160a01b038082166000818152600d60205260408120805486151560ff90811660ff19831617909255929594939192168480613e55575b15613d24575050600e5490600160401b821015613d10575091613d05602092613ce7856001600080516020614fd58339815191529701600e55613332565b90919060018060a01b038084549260031b9316831b921b1916179055565b6040519015158152a2565b634e487b7160e01b81526041600452602490fd5b909493809350159081613e4d575b50613d53575b50600080516020614fd5833981519152919250602090613d05565b805b600e805480831015613e2f578686613d6c85613332565b929054600393841b1c1614613d8657505050600101613d55565b600097919493929596971994858101908111613e1b5791613ce791613dae613dba9594613332565b9054911b1c1691613332565b8254908115613e07575091600080516020614fd583398151915293916020930190613dfc613de783613332565b81549060018060a01b039060031b1b19169055565b555b90839250613d38565b634e487b7160e01b81526031600452602490fd5b634e487b7160e01b85526011600452602485fd5b50505050600080516020614fd5833981519152919250602090613dfe565b905038613d32565b508015613ca9565b6001600160a01b0316613e71811515613077565b806000526009602052613e948260406000209060ff801983541691151516179055565b33911515907f7fa523c84ab8d7fc5b72f08b9e46dbbf10c39e119a075b3e317002d14bc9f436600080a4565b6001600160a01b038082166000818152600b60205260408120805486151560ff90811660ff1983161790925592959493919216848061402c575b15613f38575050600c5490600160401b821015613d10575091613d05602092613ce78560016000805160206150158339815191529701600c55613369565b909493809350159081614024575b50613f67575b50600080516020615015833981519152919250602090613d05565b805b600c805480831015614006578686613f8085613369565b929054600393841b1c1614613f9a57505050600101613f69565b600097919493929596971994858101908111613e1b5791613ce791613fc2613fce9594613369565b9054911b1c1691613369565b8254908115613e0757509160008051602061501583398151915293916020930190613ffb613de783613369565b555b90839250613f4c565b50505050600080516020615015833981519152919250602090613ffd565b905038613f46565b508015613efa565b6001600160a01b031690614049821515613077565b614054811515613ab2565b81600052600a60205260406000205481116140b05760207f9bed35cb62ad0dba04f9d5bfee4b5bc91443e77da8a65c4c84834c51bb08b0d69183600052600a825260406000206140a582825461316d565b9055604051908152a2565b60405162461bcd60e51b815260206004820152602a60248201527f45524333363433546f6b656e3a20416d6f756e7420657863656564732066726f6044820152697a656e20746f6b656e7360b01b6064820152608490fd5b600260065414614119576002600655565b60405162461bcd60e51b815260206004820152601f60248201527f5265656e7472616e637947756172643a207265656e7472616e742063616c6c006044820152606490fd5b6005546001600160a01b0316330361417257565b606460405162461bcd60e51b815260206004820152602060248201527f4f776e61626c653a2063616c6c6572206973206e6f7420746865206f776e65726044820152fd5b6001600160a01b039081166000818152600f60205260408120805460ff191690559190825b60108054808310156142595784846141f2856133d7565b929054600393841b1c161461420c575050506001016141db565b90949195935060001994858101908111613e1b5791613ce79161423261423e95946133d7565b9054911b1c16916133d7565b8254908115613e0757500190614256613de7836133d7565b55565b505050505050565b1561426857565b60405162461bcd60e51b815260206004820152602160248201527f45524333363433546f6b656e3a20526563697069656e742069732066726f7a656044820152603760f91b6064820152608490fd5b156142be57565b60405162461bcd60e51b815260206004820152602660248201527f45524333363433546f6b656e3a20526563697069656e7420697320626c61636b6044820152651b1a5cdd195960d21b6064820152608490fd5b6001600160a01b038082169291908315614405576007541692604051809463b9209e3360e01b825282600483015281602460209788935afa9081156143f9576000916143dc575b501561439757612eae929381600d926000526009825261438160ff6040600020541615614261565b60005252613aad60ff60406000205416156142b7565b60405162461bcd60e51b815260048101859052601960248201527f455243333634333a20496e76616c6964206964656e74697479000000000000006044820152606490fd5b6143f39150853d8711610dd157610dc28183612dc2565b38614359565b6040513d6000823e3d90fd5b60405162461bcd60e51b815260206004820152602960248201527f45524333363433546f6b656e3a2043616e6e6f74206d696e7420746f207a65726044820152686f206164647265737360b81b6064820152608490fd5b1561446357565b60405162461bcd60e51b815260206004820152602560248201527f45524333363433546f6b656e3a20546f2061646472657373206e6f74207665726044820152641a599a595960da1b6064820152608490fd5b6001600160a01b03808216939290841561466157808216801561461d5784156145d8576000958652856020526144f260408720548611156135a4565b602082600754169160246040518094819363b9209e3360e01b835260048301525afa9081156145cd579061452d9187916145ae575b5061445c565b614538848385614e78565b6008541691823b15611af2576040516322ebca6d60e21b81526001600160a01b03918216600482015291166024820152604481019290925290919081908390606490829084905af19081156145a25750614593575b50600190565b61459c90612d7e565b3861458d565b604051903d90823e3d90fd5b6145c7915060203d602011610dd157610dc28183612dc2565b38614527565b6040513d88823e3d90fd5b60405162461bcd60e51b815260206004820152601c60248201527f45524333363433546f6b656e3a20496e76616c696420616d6f756e74000000006044820152606490fd5b606460405162461bcd60e51b815260206004820152602060248201527f45524333363433546f6b656e3a20496e76616c696420746f20616464726573736044820152fd5b60405162461bcd60e51b815260206004820152602260248201527f45524333363433546f6b656e3a20496e76616c69642066726f6d206164647265604482015261737360f01b6064820152608490fd5b6001600160a01b0381169081156146e15781612eae926000526009602052613a9360ff60406000205416156139c7565b60405162461bcd60e51b815260206004820152602b60248201527f45524333363433546f6b656e3a2043616e6e6f74206275726e2066726f6d207a60448201526a65726f206164647265737360a81b6064820152608490fd5b9091906001600160a01b0380821691821561484b5760009183835282602052604093848420548781106147fc57908785928284528360205203868320558760025403600255600080516020614ff5833981519152602087518a8152a36008541690813b156104bf57835163469753b960e11b81526001600160a01b039091166004820152602481019590955292939281908490818381604481015b03925af19182156147f25750506147e95750565b612eae90612d7e565b51903d90823e3d90fd5b855162461bcd60e51b815260206004820152602260248201527f45524332303a206275726e20616d6f756e7420657863656564732062616c616e604482015261636560f01b6064820152608490fd5b60405162461bcd60e51b815260206004820152602160248201527f45524332303a206275726e2066726f6d20746865207a65726f206164647265736044820152607360f81b6064820152608490fd5b6001600160a01b0381166000908152600f60205260409020805460ff1916600117905560105490600160401b821015612d9157613ce7826001612eae94016010556133d7565b929160018060a01b03938481169260009584875260206009815260409561490d60ff888b205416156139c7565b82841690818a526009835261492860ff898c20541615614261565b8952600d825261493e60ff888b20541615613a13565b808952600d825261495560ff888b205416156142b7565b61495e85614ce8565b61496784614ce8565b81836007541691602489518094819363b9209e3360e01b835260048301525afa908115614ab7579061499f918a91614ac1575061445c565b60085486516372331c7360e11b81526001600160a01b03868116600483015285166024820152604481018790529082908290606490829087165afa908115614ab7578991614a9a575b5015614a4957506149fa848385614e78565b6008541691823b15614a455784516322ebca6d60e21b81526001600160a01b0391821660048201529116602482015260448101929092529293909281908490818381606481016147d5565b8680fd5b60849086519062461bcd60e51b82526004820152602560248201527f45524333363433546f6b656e3a20436f6d706c69616e636520636865636b2066604482015264185a5b195960da1b6064820152fd5b614ab19150823d8411610dd157610dc28183612dc2565b386149e8565b87513d8b823e3d90fd5b6145c79150833d8511610dd157610dc28183612dc2565b9060009180835260206016815260406002818620015415614c975782855260168252808520918151614b0981612da7565b614b1284612fd4565b815260019660026001860154958484019687520154848301528781905b614bcf575b50857f3d9bba27d3e360d8c80645beed7e991454a8271bf6f269a24f7782be0f0d065496979850815260168352600284822082614b718254612e35565b80614b95575b50600182015501555192516137428351948486958652850190612b37565b601f8111600114614bab575081555b8238614b77565b828252614bc6601f888420920160051c820160018301613613565b81835555614ba4565b601780549081831015614c90578890614be7846133a0565b929054600393841b1c14614c0057505050880188614b2f565b919a50916000199a8b8101908111613e1b57613844614c21614c2d926133a0565b905490861b1c926133a0565b90558054998a15614c7c57807f3d9bba27d3e360d8c80645beed7e991454a8271bf6f269a24f7782be0f0d0654999a9b0192614c68846133a0565b81939154921b1b1916905555879695614b34565b634e487b7160e01b84526031600452602484fd5b5050614b34565b60849250519062461bcd60e51b82526004820152602560248201527f45524333363433546f6b656e3a20446f63756d656e7420646f6573206e6f7420604482015264195e1a5cdd60da1b6064820152fd5b6005546001600160a01b0391821691168114614d7357600c54614d085750565b600052600b60205260ff6040600020541615614d2057565b60405162461bcd60e51b815260206004820152602560248201527f45524333363433546f6b656e3a2041646472657373206e6f742077686974656c6044820152641a5cdd195960da1b6064820152608490fd5b50565b6001600160a01b03908116918215614e275716918215614dd75760207f8c5be1e5ebec7d5bd14f71427d1e84f3dd0314c0f7b2291e5b200ac8c7c3b925918360005260018252604060002085600052825280604060002055604051908152a3565b60405162461bcd60e51b815260206004820152602260248201527f45524332303a20617070726f766520746f20746865207a65726f206164647265604482015261737360f01b6064820152608490fd5b60405162461bcd60e51b8152602060048201526024808201527f45524332303a20617070726f76652066726f6d20746865207a65726f206164646044820152637265737360e01b6064820152608490fd5b6001600160a01b03908116918215614f815716918215614f3057600082815280602052604081205491808310614edc5760408282600080516020614ff5833981519152958760209652828652038282205586815220818154019055604051908152a3565b60405162461bcd60e51b815260206004820152602660248201527f45524332303a207472616e7366657220616d6f756e7420657863656564732062604482015265616c616e636560d01b6064820152608490fd5b60405162461bcd60e51b815260206004820152602360248201527f45524332303a207472616e7366657220746f20746865207a65726f206164647260448201526265737360e81b6064820152608490fd5b60405162461bcd60e51b815260206004820152602560248201527f45524332303a207472616e736665722066726f6d20746865207a65726f206164604482015264647265737360d81b6064820152608490fdfe6a12b3df6cba4203bd7fd06b816789f87de8c594299aed5717ae070fac781bacddf252ad1be2c89b69c2b068fc378daa952ba7f163c4a11628f55a4df523b3eff93f9a76c1bf3444d22400a00cb9fe990e6abe9dbb333fda48859cfee864543da2646970667358221220fbafa5ff8f2522289bd4a738865b604314206c3181029fbd8603c50457981be064736f6c6343000816003360803461020257601f61170438819003918201601f191683019291906001600160401b0384118385101761020757816020928492604096875283398101031261020257516001600160a01b03908181169081900361020257600054835192339082167f8be0079c531659141344cd1fd0a4f28419497f9722a3daafe3b4186f6b6457e0600080a36001600160a81b0319163360ff60a01b19161760005560018080559181156101ad575060018060a01b0319600254161760025560238251624b594360e81b815260046003820152209060ff19918183825416179055602383516210535360ea1b815260046003820152208183825416179055602983516853616e6374696f6e7360b81b815260046009820152208183825416179055602e83516d5472616e736665724c696d69747360901b81526004600e820152208183825416179055603383517f436f756e7472795265737472696374696f6e7300000000000000000000000000815260046013820152209082825416179055600019806007556000600855816009541660095581600d5416600d55600e5560065416600655516114e6908161021e8239f35b62461bcd60e51b815260206004820152602a60248201527f4261736963436f6d706c69616e63653a20496e76616c6964206964656e7469746044820152697920726567697374727960b01b6064820152608490fd5b600080fd5b634e487b7160e01b600052604160045260246000fdfe608060408181526004908136101561001657600080fd5b600092833560e01c908163134e18f4146108185750806337b7e1fb146107ef5780633ff5aa02146106d357806340db3b501461065b578063503b8e811461061d57806351e7b8b9146105f65780635c975abb146105d15780635eb55d16146105a45780635f8dead31461044a5780636402ed461461057a5780636a3edf2814610551578063715018a6146104f75780637886909a1461049e5780638baf29b41461046f5780638d2ea7721461044a5780638da5cb5b14610422578063993e8b95146103ee57806399f644f6146103c8578063b8b4cc64146103a3578063bcbd397d1461035b578063bddb7c8314610331578063be0f8f73146102f3578063bff9c1c4146102c6578063c458b33a14610299578063e46638e614610274578063f2fde38b146101b15763f75e7ec31461014d57600080fd5b346101ad573660031901126101a95767ffffffffffffffff81358181116101a55761017b90369084016108ad565b916024359081116101a15761019e93610196913691016108ad565b9290916112dc565b80f35b8480fd5b8380fd5b5080fd5b8280fd5b5090346101ad5760203660031901126101ad576101cc61083d565b906101d5611458565b6001600160a01b0391821692831561022257505082546001600160a01b0319811683178455167f8be0079c531659141344cd1fd0a4f28419497f9722a3daafe3b4186f6b6457e08380a380f35b906020608492519162461bcd60e51b8352820152602660248201527f4f776e61626c653a206e6577206f776e657220697320746865207a65726f206160448201526564647265737360d01b6064820152fd5b8382346101a95760209061029061028a36610867565b91611100565b90519015158152f35b5050346101a95760603660031901126101a95760443580151581036101ad5761019e91602435903561101f565b8382346101a9573660031901126102f05761019e6102e261089c565b6102ea610858565b90610f6f565b80fd5b8382346101a95760203660031901126101a95760209160ff9082906001600160a01b0361031e61083d565b168152600f855220541690519015158152f35b8382346101a9573660031901126102f05761019e61034d61083d565b610355610858565b90610ed9565b8382346101a95760203660031901126101a9576020916001600160a01b0361038161083d565b168152600a8352819020548061039d5750600e54905b51908152f35b90610397565b8382346101a9573660031901126102f05761019e6103bf61083d565b60243590610e44565b8382346101a95760203660031901126101a9576020906102906103e961089c565b610e1b565b8382346101a95760203660031901126101a95760209061040c61083d565b60018060a01b0380600354169116149051908152f35b8382346101a957816003193601126101a957905490516001600160a01b039091168152602090f35b8382346101a9573660031901126102f05761019e61046661083d565b60243590610c35565b83346102f05761019e61048136610867565b91905061049960018060a01b03600354163314610bc3565b610c4f565b50346101ad573660031901126101a957803567ffffffffffffffff918282116101a557366023830112156101a5578101359182116101ad5736602483830101116101ad5761019e9160246104f0610858565b9201610d83565b83346102f057806003193601126102f057610510611458565b80546001600160a01b03198116825581906001600160a01b03167f8be0079c531659141344cd1fd0a4f28419497f9722a3daafe3b4186f6b6457e08280a380f35b8382346101a957816003193601126101a95760035490516001600160a01b039091168152602090f35b8382346101a9573660031901126102f05761019e61059661083d565b61059e610858565b90610ced565b8382346101a95760203660031901126101a9576020906105ca6105c561083d565b610b6d565b9051908152f35b8382346101a957816003193601126101a95760ff6020925460a01c1690519015158152f35b50346101ad573660031901126101a9573580151581036101a95761019e9060243590610aa0565b8382346101a95760203660031901126101a95760209160ff9082906001600160a01b0361064861083d565b1681526010855220541690519015158152f35b8382346101a95760203660031901126101a95760207f28a4ca7134a3b3f9aff286e79ad3daadb4a06d1b43d037a3a98bdc074edd9b7a9161069a61083d565b906106a3611458565b6003546001600160a01b03808216936106be91168414610993565b6001600160a01b03191660035551908152a180f35b50346101ad5760203660031901126101ad576106ed61083d565b6106f5611458565b6001600160a01b0390811692831561079d5760035491821661074e57506001600160a01b0319168217600355519081527f2de35142b19ed5a07796cf30791959c592018f70b1d2d7c460eef8ffe713692b90602090a180f35b608490602084519162461bcd60e51b83528201526024808201527f4261736963436f6d706c69616e63653a20546f6b656e20616c726561647920626044820152631bdd5b9960e21b6064820152fd5b608490602084519162461bcd60e51b8352820152602660248201527f4261736963436f6d706c69616e63653a20496e76616c696420746f6b656e206160448201526564647265737360d01b6064820152fd5b8382346101a957806003193601126101a95760209061029061080f61083d565b60243590610901565b8490346101a957816003193601126101a9576002546001600160a01b03168152602090f35b600435906001600160a01b038216820361085357565b600080fd5b60243590811515820361085357565b6060906003190112610853576001600160a01b0390600435828116810361085357916024359081168103610853579060443590565b6004359061ffff8216820361085357565b9181601f840112156108535782359167ffffffffffffffff8311610853576020808501948460051b01011161085357565b919082018092116108eb57565b634e487b7160e01b600052601160045260246000fd5b9060ff600d54161561098c576001600160a01b039091166000908152600a602052604081205491908215610982575b600b602052604081205490600c60205260408120549062015180820180921161096e57504210156109695790610965916108de565b1190565b501190565b634e487b7160e01b81526011600452602490fd5b600e549250610930565b5050600090565b1561099a57565b606460405162461bcd60e51b815260206004820152602060248201527f4261736963436f6d706c69616e63653a20546f6b656e206e6f7420626f756e646044820152fd5b90601f8019910116810190811067ffffffffffffffff821117610a0057604052565b634e487b7160e01b600052604160045260246000fd5b90816020910312610853575180151581036108535790565b15610a3557565b60405162461bcd60e51b815260206004820152603b60248201527f4261736963436f6d706c69616e63653a204f6e6c79206f776e6572206f72206160448201527f67656e742063616e2063616c6c20746869732066756e6374696f6e00000000006064820152608490fd5b6000546001600160a01b0392919083163314610b5357602060249360035416610aca811515610993565b6040516307feec1960e21b815233600482015294859182905afa928315610b4757610b1693610b0191600091610b18575b50610a2e565b60ff8019600d54169115151617600d55600e55565b565b610b3a915060203d602011610b40575b610b3281836109de565b810190610a16565b38610afb565b503d610b28565b6040513d6000823e3d90fd5b610b16925060ff8019600d54169115151617600d55600e55565b6001600160a01b03166000818152600c6020526040812054909190620151808101908110610baf57421015610bab578152600b602052604090205490565b5090565b634e487b7160e01b83526011600452602483fd5b15610bca57565b60405162461bcd60e51b815260206004820152603860248201527f4261736963436f6d706c69616e63653a204f6e6c7920626f756e6420746f6b6560448201527f6e2063616e2063616c6c20746869732066756e6374696f6e00000000000000006064820152608490fd5b90610b169161049960018060a01b03600354163314610bc3565b60ff600d541680610cdb575b610c63575050565b6001600160a01b03166000818152600c602052604081205490929190620151808101908110610cc7574210610cab578252600b6020526040822055600c602052604042912055565b82604091610cc3939452600b602052209182546108de565b9055565b634e487b7160e01b84526011600452602484fd5b506001600160a01b0381161515610c5b565b6000546001600160a01b0392919083163314610d5257602060249360035416610d17811515610993565b6040516307feec1960e21b815233600482015294859182905afa928315610b4757610b1693610d4d91600091610b185750610a2e565b610d58565b610b1692505b90610b169160018060a01b0316600052600f60205260406000209060ff801983541691151516179055565b6000546001600160a01b039392919084163314610de957602060249460035416610dae811515610993565b6040516307feec1960e21b815233600482015295869182905afa938415610b4757610b1694610de491600091610b185750610a2e565b610def565b610b1693505b906020610b169392826040519384928337810160048152030190209060ff801983541691151516179055565b60ff6006541615610e3e5761ffff16600052600560205260ff6040600020541690565b50600190565b6000546001600160a01b0392919083163314610ebe57602060249360035416610e6e811515610993565b6040516307feec1960e21b815233600482015294859182905afa928315610b4757610b1693610ea491600091610b185750610a2e565b6001600160a01b03166000908152600a6020526040902055565b6001600160a01b03166000908152600a602052604090205550565b6000546001600160a01b0392919083163314610f3e57602060249360035416610f03811515610993565b6040516307feec1960e21b815233600482015294859182905afa928315610b4757610b1693610f3991600091610b185750610a2e565b610f44565b610b1692505b90610b169160018060a01b0316600052601060205260406000209060ff801983541691151516179055565b6000546001600160a01b0392919083163314610fd457602060249360035416610f99811515610993565b6040516307feec1960e21b815233600482015294859182905afa928315610b4757610b1693610fcf91600091610b185750610a2e565b610fda565b610b1692505b9061ffff610b169260065460ff81161561100f575b5016600052600560205260406000209060ff801983541691151516179055565b60ff191660011760065538610fef565b6000546001600160a01b0393929190841633146110855760206024946003541661104a811515610993565b6040516307feec1960e21b815233600482015295869182905afa938415610b4757610b169461108091600091610b185750610a2e565b61108b565b610b1693505b8181116110aa5760085560075560ff8019600954169115151617600955565b60405162461bcd60e51b815260206004820152602860248201527f4261736963436f6d706c69616e63653a20496e76616c6964207472616e73666560448201526772206c696d69747360c01b6064820152608490fd5b604090602e82516d5472616e736665724c696d69747360901b81526004600e82015260ff918291205416156111c45760018060a01b039081831692600096848852602094600f865283878a20541680156112cb575b6112a4578089526010865283878a20541680156112ba575b6112a4578360095416611292575b83600d54169081611288575b5061126c575b5050806033855172436f756e7472795265737472696374696f6e7360681b8152600460138201522054169081611260575b506111ce575b5050505050600190565b6002548351637e42683b60e01b81529482166004860152829185916024918391165afa9182156112575750839161121c575b5061120b9150610e1b565b1561121957808080806111c4565b90565b905081813d8311611250575b61123281836109de565b810103126101a9575161ffff811681036101a95761120b9038611200565b503d611228565b513d85823e3d90fd5b905060065416386111be565b61127591610901565b61128057388061118d565b505050505090565b9050151538611187565b600854821080156112af575b1561117b575b505050505050505090565b50600754821161129e565b50848816895283878a20541661116d565b50848816895283878a205416611155565b6000546001600160a01b0394939291908516331461134357602060249560035416611308811515610993565b6040516307feec1960e21b815233600482015296879182905afa948515610b4757610b169561133e91600091610b185750610a2e565b611373565b610b169450611373565b919081101561135d5760051b0190565b634e487b7160e01b600052603260045260246000fd5b928082036114035760065460ff8116156113f3575b5060005b82811061139a575050505050565b6113a581838661134d565b35908115158203610853576113bb81858861134d565b3561ffff8116809103610853576001926113ed91600052600560205260406000209060ff801983541691151516179055565b0161138c565b60ff191660011760065538611388565b60405162461bcd60e51b815260206004820152602760248201527f4261736963436f6d706c69616e63653a204172726179206c656e67746873206d6044820152660d2e6dac2e8c6d60cb1b6064820152608490fd5b6000546001600160a01b0316330361146c57565b606460405162461bcd60e51b815260206004820152602060248201527f4f776e61626c653a2063616c6c6572206973206e6f7420746865206f776e65726044820152fdfea2646970667358221220f6414d59c268adbb423f059b8d7e120aaf84c681a7a666ea735af6f7bd28e1a764736f6c6343000816003331ecc21a745e3968a04e9570e4425bc18fa8019c68028196b546d1669c200c6866de8ffda797e3de9c05e8fc57b3bf0ec28a930d40b0d285d93c06501cf6a090ce6d7b5282bd9a3661ae061feed1dbda4e52ab073b1f9285be6e155d9c38d4ec",
  "linkReferences": {},
  "deployedLinkReferences": {}
}