{
  "_format": "hh-sol-artifact-1",
  "contractName": "LazyNFT1948",
  "sourceName": "contracts/LazyNFT1948/LazyNFT1948.sol",
  "abi": [
    {
      "inputs": [
        {
          "internalType": "string",
          "name": "name",
          "type": "string"
        },
        {
          "internalType": "string",
          "name": "symbol",
          "type": "string"
        },
        {
          "internalType": "address",
          "name": "minter",
          "type": "address"
        }
      ],
      "stateMutability": "nonpayable",
      "type": "constructor"
    },
    {
      "anonymous": false,
      "inputs": [
        {
          "indexed": true,
          "internalType": "address",
          "name": "owner",
          "type": "address"
        },
        {
          "indexed": true,
          "internalType": "address",
          "name": "approved",
          "type": "address"
        },
        {
          "indexed": true,
          "internalType": "uint256",
          "name": "tokenId",
          "type": "uint256"
        }
      ],
      "name": "Approval",
      "type": "event"
    },
    {
      "anonymous": false,
      "inputs": [
        {
          "indexed": true,
          "internalType": "address",
          "name": "owner",
          "type": "address"
        },
        {
          "indexed": true,
          "internalType": "address",
          "name": "operator",
          "type": "address"
        },
        {
          "indexed": false,
          "internalType": "bool",
          "name": "approved",
          "type": "bool"
        }
      ],
      "name": "ApprovalForAll",
      "type": "event"
    },
    {
      "anonymous": false,
      "inputs": [
        {
          "indexed": true,
          "internalType": "uint256",
          "name": "tokenId",
          "type": "uint256"
        },
        {
          "indexed": false,
          "internalType": "bytes32",
          "name": "oldData",
          "type": "bytes32"
        },
        {
          "indexed": false,
          "internalType": "bytes32",
          "name": "newData",
          "type": "bytes32"
        }
      ],
      "name": "DataUpdated",
      "type": "event"
    },
    {
      "anonymous": false,
      "inputs": [
        {
          "indexed": true,
          "internalType": "address",
          "name": "previousOwner",
          "type": "address"
        },
        {
          "indexed": true,
          "internalType": "address",
          "name": "newOwner",
          "type": "address"
        }
      ],
      "name": "OwnershipTransferred",
      "type": "event"
    },
    {
      "anonymous": false,
      "inputs": [
        {
          "indexed": true,
          "internalType": "bytes32",
          "name": "role",
          "type": "bytes32"
        },
        {
          "indexed": true,
          "internalType": "bytes32",
          "name": "previousAdminRole",
          "type": "bytes32"
        },
        {
          "indexed": true,
          "internalType": "bytes32",
          "name": "newAdminRole",
          "type": "bytes32"
        }
      ],
      "name": "RoleAdminChanged",
      "type": "event"
    },
    {
      "anonymous": false,
      "inputs": [
        {
          "indexed": true,
          "internalType": "bytes32",
          "name": "role",
          "type": "bytes32"
        },
        {
          "indexed": true,
          "internalType": "address",
          "name": "account",
          "type": "address"
        },
        {
          "indexed": true,
          "internalType": "address",
          "name": "sender",
          "type": "address"
        }
      ],
      "name": "RoleGranted",
      "type": "event"
    },
    {
      "anonymous": false,
      "inputs": [
        {
          "indexed": true,
          "internalType": "bytes32",
          "name": "role",
          "type": "bytes32"
        },
        {
          "indexed": true,
          "internalType": "address",
          "name": "account",
          "type": "address"
        },
        {
          "indexed": true,
          "internalType": "address",
          "name": "sender",
          "type": "address"
        }
      ],
      "name": "RoleRevoked",
      "type": "event"
    },
    {
      "anonymous": false,
      "inputs": [
        {
          "indexed": true,
          "internalType": "address",
          "name": "from",
          "type": "address"
        },
        {
          "indexed": true,
          "internalType": "address",
          "name": "to",
          "type": "address"
        },
        {
          "indexed": true,
          "internalType": "uint256",
          "name": "tokenId",
          "type": "uint256"
        }
      ],
      "name": "Transfer",
      "type": "event"
    },
    {
      "anonymous": false,
      "inputs": [
        {
          "indexed": true,
          "internalType": "address",
          "name": "nftAddress",
          "type": "address"
        },
        {
          "indexed": true,
          "internalType": "address",
          "name": "to",
          "type": "address"
        },
        {
          "indexed": true,
          "internalType": "uint256",
          "name": "tokenId",
          "type": "uint256"
        },
        {
          "indexed": false,
          "internalType": "address",
          "name": "from",
          "type": "address"
        }
      ],
      "name": "UptickLazyNFT",
      "type": "event"
    },
    {
      "inputs": [],
      "name": "DEFAULT_ADMIN_ROLE",
      "outputs": [
        {
          "internalType": "bytes32",
          "name": "",
          "type": "bytes32"
        }
      ],
      "stateMutability": "view",
      "type": "function"
    },
    {
      "inputs": [
        {
          "internalType": "address",
          "name": "to",
          "type": "address"
        },
        {
          "internalType": "uint256",
          "name": "tokenId",
          "type": "uint256"
        }
      ],
      "name": "approve",
      "outputs": [],
      "stateMutability": "nonpayable",
      "type": "function"
    },
    {
      "inputs": [
        {
          "internalType": "address",
          "name": "owner",
          "type": "address"
        }
      ],
      "name": "balanceOf",
      "outputs": [
        {
          "internalType": "uint256",
          "name": "",
          "type": "uint256"
        }
      ],
      "stateMutability": "view",
      "type": "function"
    },
    {
      "inputs": [
        {
          "internalType": "uint256",
          "name": "tokenId",
          "type": "uint256"
        }
      ],
      "name": "burn",
      "outputs": [],
      "stateMutability": "nonpayable",
      "type": "function"
    },
    {
      "inputs": [
        {
          "internalType": "uint256",
          "name": "tokenId",
          "type": "uint256"
        }
      ],
      "name": "exists",
      "outputs": [
        {
          "internalType": "bool",
          "name": "",
          "type": "bool"
        }
      ],
      "stateMutability": "view",
      "type": "function"
    },
    {
      "inputs": [
        {
          "internalType": "uint256",
          "name": "tokenId",
          "type": "uint256"
        }
      ],
      "name": "getApproved",
      "outputs": [
        {
          "internalType": "address",
          "name": "",
          "type": "address"
        }
      ],
      "stateMutability": "view",
      "type": "function"
    },
    {
      "inputs": [],
      "name": "getChainID",
      "outputs": [
        {
          "internalType": "uint256",
          "name": "",
          "type": "uint256"
        }
      ],
      "stateMutability": "view",
      "type": "function"
    },
    {
      "inputs": [],
      "name": "getCreator",
      "outputs": [
        {
          "internalType": "address",
          "name": "",
          "type": "address"
        }
      ],
      "stateMutability": "view",
      "type": "function"
    },
    {
      "inputs": [
        {
          "internalType": "uint256",
          "name": "_tokenId",
          "type": "uint256"
        }
      ],
      "name": "getCreatorFee",
      "outputs": [
        {
          "internalType": "uint256",
          "name": "",
          "type": "uint256"
        }
      ],
      "stateMutability": "view",
      "type": "function"
    },
    {
      "inputs": [
        {
          "internalType": "bytes32",
          "name": "role",
          "type": "bytes32"
        }
      ],
      "name": "getRoleAdmin",
      "outputs": [
        {
          "internalType": "bytes32",
          "name": "",
          "type": "bytes32"
        }
      ],
      "stateMutability": "view",
      "type": "function"
    },
    {
      "inputs": [
        {
          "internalType": "bytes32",
          "name": "role",
          "type": "bytes32"
        },
        {
          "internalType": "address",
          "name": "account",
          "type": "address"
        }
      ],
      "name": "grantRole",
      "outputs": [],
      "stateMutability": "nonpayable",
      "type": "function"
    },
    {
      "inputs": [
        {
          "internalType": "bytes32",
          "name": "role",
          "type": "bytes32"
        },
        {
          "internalType": "address",
          "name": "account",
          "type": "address"
        }
      ],
      "name": "hasRole",
      "outputs": [
        {
          "internalType": "bool",
          "name": "",
          "type": "bool"
        }
      ],
      "stateMutability": "view",
      "type": "function"
    },
    {
      "inputs": [
        {
          "internalType": "address",
          "name": "owner",
          "type": "address"
        },
        {
          "internalType": "address",
          "name": "operator",
          "type": "address"
        }
      ],
      "name": "isApprovedForAll",
      "outputs": [
        {
          "internalType": "bool",
          "name": "",
          "type": "bool"
        }
      ],
      "stateMutability": "view",
      "type": "function"
    },
    {
      "inputs": [
        {
          "internalType": "address",
          "name": "to",
          "type": "address"
        },
        {
          "internalType": "uint256",
          "name": "tokenId",
          "type": "uint256"
        },
        {
          "internalType": "string",
          "name": "tokenURI",
          "type": "string"
        },
        {
          "internalType": "address",
          "name": "payAddress",
          "type": "address"
        },
        {
          "internalType": "uint256",
          "name": "payAmount",
          "type": "uint256"
        },
        {
          "internalType": "uint256",
          "name": "creatorFee",
          "type": "uint256"
        },
        {
          "internalType": "bytes",
          "name": "signature",
          "type": "bytes"
        },
        {
          "internalType": "bytes32",
          "name": "newData",
          "type": "bytes32"
        }
      ],
      "name": "lazyMint",
      "outputs": [],
      "stateMutability": "payable",
      "type": "function"
    },
    {
      "inputs": [],
      "name": "name",
      "outputs": [
        {
          "internalType": "string",
          "name": "",
          "type": "string"
        }
      ],
      "stateMutability": "view",
      "type": "function"
    },
    {
      "inputs": [],
      "name": "owner",
      "outputs": [
        {
          "internalType": "address",
          "name": "",
          "type": "address"
        }
      ],
      "stateMutability": "view",
      "type": "function"
    },
    {
      "inputs": [
        {
          "internalType": "uint256",
          "name": "tokenId",
          "type": "uint256"
        }
      ],
      "name": "ownerOf",
      "outputs": [
        {
          "internalType": "address",
          "name": "",
          "type": "address"
        }
      ],
      "stateMutability": "view",
      "type": "function"
    },
    {
      "inputs": [
        {
          "internalType": "uint256",
          "name": "tokenId",
          "type": "uint256"
        }
      ],
      "name": "readData",
      "outputs": [
        {
          "internalType": "bytes32",
          "name": "",
          "type": "bytes32"
        }
      ],
      "stateMutability": "view",
      "type": "function"
    },
    {
      "inputs": [],
      "name": "renounceOwnership",
      "outputs": [],
      "stateMutability": "nonpayable",
      "type": "function"
    },
    {
      "inputs": [
        {
          "internalType": "bytes32",
          "name": "role",
          "type": "bytes32"
        },
        {
          "internalType": "address",
          "name": "account",
          "type": "address"
        }
      ],
      "name": "renounceRole",
      "outputs": [],
      "stateMutability": "nonpayable",
      "type": "function"
    },
    {
      "inputs": [
        {
          "internalType": "bytes32",
          "name": "role",
          "type": "bytes32"
        },
        {
          "internalType": "address",
          "name": "account",
          "type": "address"
        }
      ],
      "name": "revokeRole",
      "outputs": [],
      "stateMutability": "nonpayable",
      "type": "function"
    },
    {
      "inputs": [
        {
          "internalType": "address",
          "name": "from",
          "type": "address"
        },
        {
          "internalType": "address",
          "name": "to",
          "type": "address"
        },
        {
          "internalType": "uint256",
          "name": "tokenId",
          "type": "uint256"
        }
      ],
      "name": "safeTransferFrom",
      "outputs": [],
      "stateMutability": "nonpayable",
      "type": "function"
    },
    {
      "inputs": [
        {
          "internalType": "address",
          "name": "from",
          "type": "address"
        },
        {
          "internalType": "address",
          "name": "to",
          "type": "address"
        },
        {
          "internalType": "uint256",
          "name": "tokenId",
          "type": "uint256"
        },
        {
          "internalType": "bytes",
          "name": "_data",
          "type": "bytes"
        }
      ],
      "name": "safeTransferFrom",
      "outputs": [],
      "stateMutability": "nonpayable",
      "type": "function"
    },
    {
      "inputs": [
        {
          "internalType": "address",
          "name": "operator",
          "type": "address"
        },
        {
          "internalType": "bool",
          "name": "approved",
          "type": "bool"
        }
      ],
      "name": "setApprovalForAll",
      "outputs": [],
      "stateMutability": "nonpayable",
      "type": "function"
    },
    {
      "inputs": [
        {
          "internalType": "bytes4",
          "name": "interfaceId",
          "type": "bytes4"
        }
      ],
      "name": "supportsInterface",
      "outputs": [
        {
          "internalType": "bool",
          "name": "",
          "type": "bool"
        }
      ],
      "stateMutability": "view",
      "type": "function"
    },
    {
      "inputs": [],
      "name": "symbol",
      "outputs": [
        {
          "internalType": "string",
          "name": "",
          "type": "string"
        }
      ],
      "stateMutability": "view",
      "type": "function"
    },
    {
      "inputs": [
        {
          "internalType": "uint256",
          "name": "tokenId",
          "type": "uint256"
        }
      ],
      "name": "tokenURI",
      "outputs": [
        {
          "internalType": "string",
          "name": "",
          "type": "string"
        }
      ],
      "stateMutability": "view",
      "type": "function"
    },
    {
      "inputs": [
        {
          "internalType": "address",
          "name": "from",
          "type": "address"
        },
        {
          "internalType": "address",
          "name": "to",
          "type": "address"
        },
        {
          "internalType": "uint256",
          "name": "tokenId",
          "type": "uint256"
        }
      ],
      "name": "transferFrom",
      "outputs": [],
      "stateMutability": "nonpayable",
      "type": "function"
    },
    {
      "inputs": [
        {
          "internalType": "address",
          "name": "newOwner",
          "type": "address"
        }
      ],
      "name": "transferOwnership",
      "outputs": [],
      "stateMutability": "nonpayable",
      "type": "function"
    },
    {
      "inputs": [
        {
          "internalType": "uint256",
          "name": "tokenId",
          "type": "uint256"
        },
        {
          "internalType": "bytes32",
          "name": "newData",
          "type": "bytes32"
        }
      ],
      "name": "writeData",
      "outputs": [],
      "stateMutability": "nonpayable",
      "type": "function"
    }
  ],
  "bytecode": "6101206040523480156200001257600080fd5b506040516200310438038062003104833981016040819052620000359162000453565b604051806040016040528060128152602001714c617a794e4654313934382d55707469636b60701b815250604051806040016040528060018152602001603160f81b815250848481600090805190602001906200009492919062000302565b508051620000aa90600190602084019062000302565b5050506000620000bf620001ec60201b60201c565b600880546001600160a01b0319166001600160a01b038316908117909155604051919250906000907f8be0079c531659141344cd1fd0a4f28419497f9722a3daafe3b4186f6b6457e0908290a350815160208084019190912082519183019190912060c082905260e08190524660a0527f8b73c3c69bb8fe3d512ecc4cf759cc79239f7b179b0ffacaa9a75d522b39400f6200015d818484620001f0565b6080526101005250620001869250600080516020620030c483398151915291508390506200022c565b620001aa600080516020620030c4833981519152620001a46200023c565b6200022c565b620001c5600080516020620030e4833981519152826200022c565b620001e3600080516020620030e4833981519152620001a46200023c565b5050506200055b565b3390565b600083838346306040516020016200020d959493929190620004dc565b6040516020818303038152906040528051906020012090509392505050565b6200023882826200024b565b5050565b6008546001600160a01b031690565b620002578282620002d7565b620002385760008281526007602090815260408083206001600160a01b03851684529091529020805460ff1916600117905562000293620001ec565b6001600160a01b0316816001600160a01b0316837f2f8788117e7eff1d82e926ec794901d17c78024a50270940304540a733656f0d60405160405180910390a45050565b60009182526007602090815260408084206001600160a01b0393909316845291905290205460ff1690565b828054620003109062000508565b90600052602060002090601f0160209004810192826200033457600085556200037f565b82601f106200034f57805160ff19168380011785556200037f565b828001600101855582156200037f579182015b828111156200037f57825182559160200191906001019062000362565b506200038d92915062000391565b5090565b5b808211156200038d576000815560010162000392565b600082601f830112620003b9578081fd5b81516001600160401b0380821115620003d657620003d662000545565b6040516020601f8401601f1916820181018381118382101715620003fe57620003fe62000545565b604052838252858401810187101562000415578485fd5b8492505b8383101562000438578583018101518284018201529182019162000419565b838311156200044957848185840101525b5095945050505050565b60008060006060848603121562000468578283fd5b83516001600160401b03808211156200047f578485fd5b6200048d87838801620003a8565b94506020860151915080821115620004a3578384fd5b50620004b286828701620003a8565b604086015190935090506001600160a01b0381168114620004d1578182fd5b809150509250925092565b9485526020850193909352604084019190915260608301526001600160a01b0316608082015260a00190565b6002810460018216806200051d57607f821691505b602082108114156200053f57634e487b7160e01b600052602260045260246000fd5b50919050565b634e487b7160e01b600052604160045260246000fd5b60805160a05160c05160e05161010051612b24620005a06000396000611afa01526000611b3c01526000611b1b01526000611aa801526000611ad10152612b246000f3fe60806040526004361061015d5760003560e01c806301ffc9a71461016257806306fdde0314610198578063081812fc146101ba578063095ea7b3146101e75780630ee2cb101461020957806323b872dd1461021e578063248a9ca31461023e5780632f2ff15d1461026b57806336568abe1461028b57806337ebbc03146102ab57806342842e0e146102cb57806342966c68146102eb5780634f558e791461030b578063564b81ef1461032b5780636352211e1461034057806370a0823114610360578063715018a6146103805780638da5cb5b1461039557806391d14854146103aa57806395d89b41146103ca578063a217fddf146103df578063a22cb465146103f4578063a983d43f14610414578063b88d4fde14610434578063c87b56dd14610454578063d547741f14610474578063e1c9415014610494578063e985e9c5146104a7578063f1af9d3f146104c7578063f2fde38b146104e7575b600080fd5b34801561016e57600080fd5b5061018261017d366004611fec565b610507565b60405161018f9190612158565b60405180910390f35b3480156101a457600080fd5b506101ad61051a565b60405161018f91906121f2565b3480156101c657600080fd5b506101da6101d5366004611fb2565b6105ad565b60405161018f91906120d3565b3480156101f357600080fd5b50610207610202366004611eaa565b6105f9565b005b34801561021557600080fd5b506101da610691565b34801561022a57600080fd5b50610207610239366004611dc1565b6106a0565b34801561024a57600080fd5b5061025e610259366004611fb2565b6106d8565b60405161018f9190612163565b34801561027757600080fd5b50610207610286366004611fca565b6106ed565b34801561029757600080fd5b506102076102a6366004611fca565b61072b565b3480156102b757600080fd5b5061025e6102c6366004611fb2565b61076d565b3480156102d757600080fd5b506102076102e6366004611dc1565b610794565b3480156102f757600080fd5b50610207610306366004611fb2565b6107af565b34801561031757600080fd5b50610182610326366004611fb2565b610801565b34801561033757600080fd5b5061025e610837565b34801561034c57600080fd5b506101da61035b366004611fb2565b61083b565b34801561036c57600080fd5b5061025e61037b366004611d75565b610870565b34801561038c57600080fd5b506102076108b4565b3480156103a157600080fd5b506101da61092b565b3480156103b657600080fd5b506101826103c5366004611fca565b61093a565b3480156103d657600080fd5b506101ad610965565b3480156103eb57600080fd5b5061025e610974565b34801561040057600080fd5b5061020761040f366004611e74565b610979565b34801561042057600080fd5b5061020761042f36600461203c565b610a47565b34801561044057600080fd5b5061020761044f366004611dfc565b610acc565b34801561046057600080fd5b506101ad61046f366004611fb2565b610b0b565b34801561048057600080fd5b5061020761048f366004611fca565b610c2c565b6102076104a2366004611ed3565b610c54565b3480156104b357600080fd5b506101826104c2366004611d8f565b610f52565b3480156104d357600080fd5b5061025e6104e2366004611fb2565b610f80565b3480156104f357600080fd5b50610207610502366004611d75565b610f92565b600061051282611041565b90505b919050565b606060008054610529906129c4565b80601f0160208091040260200160405190810160405280929190818152602001828054610555906129c4565b80156105a25780601f10610577576101008083540402835291602001916105a2565b820191906000526020600020905b81548152906001019060200180831161058557829003601f168201915b505050505090505b90565b60006105b882611066565b6105dd5760405162461bcd60e51b81526004016105d49061271a565b60405180910390fd5b506000908152600460205260409020546001600160a01b031690565b60006106048261083b565b9050806001600160a01b0316836001600160a01b031614156106385760405162461bcd60e51b81526004016105d490612833565b806001600160a01b031661064a611083565b6001600160a01b031614806106665750610666816104c2611083565b6106825760405162461bcd60e51b81526004016105d4906124bc565b61068c8383611087565b505050565b600061069b61092b565b905090565b6106b16106ab611083565b826110f5565b6106cd5760405162461bcd60e51b81526004016105d4906128b5565b61068c838383611172565b60009081526007602052604090206001015490565b6107016106f9836106d8565b6103c5611083565b61071d5760405162461bcd60e51b81526004016105d490612237565b610727828261128d565b5050565b610733611083565b6001600160a01b0316816001600160a01b0316146107635760405162461bcd60e51b81526004016105d490612906565b6107278282611314565b600061077882611066565b61078157600080fd5b506000908152600a602052604090205490565b61068c83838360405180602001604052806000815250610acc565b6107d97fe97b137254058bd94f28d2f3eb79e2d34074ffb488d042e3bc958e0a57d2fa223361093a565b6107f55760405162461bcd60e51b81526004016105d490612874565b6107fe81611399565b50565b60008061080d8361083b565b90506001600160a01b038116610827576000915050610515565b6001915050610515565b50919050565b4690565b6000818152600260205260408120546001600160a01b0316806105125760405162461bcd60e51b81526004016105d49061255e565b60006001600160a01b0382166108985760405162461bcd60e51b81526004016105d490612514565b506001600160a01b031660009081526003602052604090205490565b6108bc611083565b6001600160a01b03166108cd61092b565b6001600160a01b0316146108f35760405162461bcd60e51b81526004016105d490612766565b6008546040516000916001600160a01b031690600080516020612a8f833981519152908390a3600880546001600160a01b0319169055565b6008546001600160a01b031690565b60009182526007602090815260408084206001600160a01b0393909316845291905290205460ff1690565b606060018054610529906129c4565b600081565b610981611083565b6001600160a01b0316826001600160a01b031614156109b25760405162461bcd60e51b81526004016105d4906123bd565b80600560006109bf611083565b6001600160a01b03908116825260208083019390935260409182016000908120918716808252919093529120805460ff191692151592909217909155610a03611083565b6001600160a01b03167f17307eab39ab6107e8899845ad3d59bd9653f200f220920489ca2b5937696c3183604051610a3b9190612158565b60405180910390a35050565b610a508261083b565b6001600160a01b0316336001600160a01b031614610a6d57600080fd5b817f8ec06c2117d45dcb6bcb6ecf8918414a7ff1cb1ed07da8175e2cf638d0f4777f600a60008581526020019081526020016000205483604051610ab292919061219a565b60405180910390a26000918252600a602052604090912055565b610add610ad7611083565b836110f5565b610af95760405162461bcd60e51b81526004016105d4906128b5565b610b05848484846113d9565b50505050565b6060610b1682611066565b610b325760405162461bcd60e51b81526004016105d4906126c9565b60008281526006602052604081208054610b4b906129c4565b80601f0160208091040260200160405190810160405280929190818152602001828054610b77906129c4565b8015610bc45780601f10610b9957610100808354040283529160200191610bc4565b820191906000526020600020905b815481529060010190602001808311610ba757829003601f168201915b505050505090506000610bd561140c565b9050805160001415610be957509050610515565b815115610c1b578082604051602001610c03929190612089565b60405160208183030381529060405292505050610515565b610c248461141e565b949350505050565b610c386106f9836106d8565b6107635760405162461bcd60e51b81526004016105d49061247e565b6000610c998a8a898988888080601f0160208091040260200160405190810160405280939291908181526020018383808284376000920191909152506114a192505050565b9050610cc57f9f2df0fed2c77648de5860a4cc508cd0818c85b8b8a1ab4ceeef8d981c8956a68261093a565b610ce15760405162461bcd60e51b81526004016105d490612874565b610ceb8a8a6114c7565b610cf58989611594565b6000898152600960205260408120869055610d0e61092b565b90506001600160a01b038816610d7a5786341015610d3e5760405162461bcd60e51b81526004016105d4906125f5565b6040516001600160a01b0382169088156108fc029089906000818181858888f19350505050158015610d74573d6000803e3d6000fd5b50610ea2565b604051636eb1769f60e11b81526000906001600160a01b038a169063dd62ed3e90610dab90339030906004016120e7565b60206040518083038186803b158015610dc357600080fd5b505afa158015610dd7573d6000803e3d6000fd5b505050506040513d601f19601f82011682018060405250810190610dfb9190612024565b905087811015610e1d5760405162461bcd60e51b81526004016105d4906125f5565b6040516323b872dd60e01b81526001600160a01b038a16906323b872dd90610e4d90339086908d90600401612101565b602060405180830381600087803b158015610e6757600080fd5b505af1158015610e7b573d6000803e3d6000fd5b505050506040513d601f19601f82011682018060405250810190610e9f9190611f96565b50505b60405163a983d43f60e01b8152309063a983d43f90610ec7908d90879060040161219a565b600060405180830381600087803b158015610ee157600080fd5b505af1158015610ef5573d6000803e3d6000fd5b50505050898b6001600160a01b0316306001600160a01b03167f3fed02508ea22359967638ca3594ff444a94697f02ae1975fcf548e80b86516784604051610f3d91906120d3565b60405180910390a45050505050505050505050565b6001600160a01b03918216600090815260056020908152604080832093909416825291909152205460ff1690565b60009081526009602052604090205490565b610f9a611083565b6001600160a01b0316610fab61092b565b6001600160a01b031614610fd15760405162461bcd60e51b81526004016105d490612766565b6001600160a01b038116610ff75760405162461bcd60e51b81526004016105d4906122fd565b6008546040516001600160a01b03808416921690600080516020612a8f83398151915290600090a3600880546001600160a01b0319166001600160a01b0392909216919091179055565b60006001600160e01b03198216637965db0b60e01b14806105125750610512826115d8565b6000908152600260205260409020546001600160a01b0316151590565b3390565b600081815260046020526040902080546001600160a01b0319166001600160a01b03841690811790915581906110bc8261083b565b6001600160a01b03167f8c5be1e5ebec7d5bd14f71427d1e84f3dd0314c0f7b2291e5b200ac8c7c3b92560405160405180910390a45050565b600061110082611066565b61111c5760405162461bcd60e51b81526004016105d490612432565b60006111278361083b565b9050806001600160a01b0316846001600160a01b031614806111625750836001600160a01b0316611157846105ad565b6001600160a01b0316145b80610c245750610c248185610f52565b826001600160a01b03166111858261083b565b6001600160a01b0316146111ab5760405162461bcd60e51b81526004016105d49061279b565b6001600160a01b0382166111d15760405162461bcd60e51b81526004016105d490612379565b6111dc83838361068c565b6111e7600082611087565b6001600160a01b0383166000908152600360205260408120805460019290611210908490612981565b90915550506001600160a01b038216600090815260036020526040812080546001929061123e908490612955565b909155505060008181526002602052604080822080546001600160a01b0319166001600160a01b038681169182179092559151849391871691600080516020612aaf83398151915291a4505050565b611297828261093a565b6107275760008281526007602090815260408083206001600160a01b03851684529091529020805460ff191660011790556112d0611083565b6001600160a01b0316816001600160a01b0316837f2f8788117e7eff1d82e926ec794901d17c78024a50270940304540a733656f0d60405160405180910390a45050565b61131e828261093a565b156107275760008281526007602090815260408083206001600160a01b03851684529091529020805460ff19169055611355611083565b6001600160a01b0316816001600160a01b0316837ff6391f5c32d9c69d2a47ea670b442974b53935d1edc7fd64eb21e047a839171b60405160405180910390a45050565b6113a281611618565b600081815260066020526040902080546113bb906129c4565b1590506107fe5760008181526006602052604081206107fe91611bd4565b6113e4848484611172565b6113f0848484846116ad565b610b055760405162461bcd60e51b81526004016105d4906122ab565b60408051602081019091526000815290565b606061142982611066565b6114455760405162461bcd60e51b81526004016105d4906127e4565b600061144f61140c565b9050600081511161146f576040518060200160405280600081525061149a565b80611479846117c8565b60405160200161148a929190612089565b6040516020818303038152906040525b9392505050565b6000806114b0878787876118e2565b90506114bc8184611944565b979650505050505050565b6001600160a01b0382166114ed5760405162461bcd60e51b81526004016105d490612694565b6114f681611066565b156115135760405162461bcd60e51b81526004016105d490612343565b61151f6000838361068c565b6001600160a01b0382166000908152600360205260408120805460019290611548908490612955565b909155505060008181526002602052604080822080546001600160a01b0319166001600160a01b0386169081179091559051839290600080516020612aaf833981519152908290a45050565b61159d82611066565b6115b95760405162461bcd60e51b81526004016105d4906125a7565b6000828152600660209081526040909120825161068c92840190611c10565b60006001600160e01b031982166380ac58cd60e01b148061160957506001600160e01b03198216635b5e139f60e01b145b8061051257506105128261198f565b60006116238261083b565b90506116318160008461068c565b61163c600083611087565b6001600160a01b0381166000908152600360205260408120805460019290611665908490612981565b909155505060008281526002602052604080822080546001600160a01b0319169055518391906001600160a01b03841690600080516020612aaf833981519152908390a45050565b60006116c1846001600160a01b03166119a8565b156117bd57836001600160a01b031663150b7a026116dd611083565b8786866040518563ffffffff1660e01b81526004016116ff9493929190612125565b602060405180830381600087803b15801561171957600080fd5b505af1925050508015611749575060408051601f3d908101601f1916820190925261174691810190612008565b60015b6117a3573d808015611777576040519150601f19603f3d011682016040523d82523d6000602084013e61177c565b606091505b50805161179b5760405162461bcd60e51b81526004016105d4906122ab565b805181602001fd5b6001600160e01b031916630a85bd0160e11b149050610c24565b506001949350505050565b6060816117ed57506040805180820190915260018152600360fc1b6020820152610515565b8160005b81156118175780611801816129f9565b91506118109050600a8361296d565b91506117f1565b6000816001600160401b0381111561183f57634e487b7160e01b600052604160045260246000fd5b6040519080825280601f01601f191660200182016040528015611869576020820181803683370190505b5090505b8415610c245761187e600183612981565b915061188b600a86612a14565b611896906030612955565b60f81b8183815181106118b957634e487b7160e01b600052603260045260246000fd5b60200101906001600160f81b031916908160001a9053506118db600a8661296d565b945061186d565b600061193b7fbd54f54b4afd83cadbd97df587817a06ab1374186cdeed358de2ddf81730e9508686868660405160200161192095949392919061216c565b604051602081830303815290604052805190602001206119ae565b95945050505050565b600081516041146119675760405162461bcd60e51b81526004016105d490612274565b60208201516040830151606084015160001a611985868285856119c1565b9695505050505050565b6001600160e01b031981166301ffc9a760e01b14919050565b3b151590565b60006105126119bb611aa4565b83611b67565b60006fa2a8918ca85bafe22016d0b997e4df60600160ff1b038211156119f95760405162461bcd60e51b81526004016105d4906123f0565b8360ff16601b1480611a0e57508360ff16601c145b611a2a5760405162461bcd60e51b81526004016105d490612652565b600060018686868660405160008152602001604052604051611a4f94939291906121d4565b6020604051602081039080840390855afa158015611a71573d6000803e3d6000fd5b5050604051601f1901519150506001600160a01b03811661193b5760405162461bcd60e51b81526004016105d490612205565b60007f0000000000000000000000000000000000000000000000000000000000000000461415611af557507f00000000000000000000000000000000000000000000000000000000000000006105aa565b611b607f00000000000000000000000000000000000000000000000000000000000000007f00000000000000000000000000000000000000000000000000000000000000007f0000000000000000000000000000000000000000000000000000000000000000611b9a565b90506105aa565b60008282604051602001611b7c9291906120b8565b60405160208183030381529060405280519060200120905092915050565b60008383834630604051602001611bb59594939291906121a8565b6040516020818303038152906040528051906020012090509392505050565b508054611be0906129c4565b6000825580601f10611bf257506107fe565b601f0160209004906000526020600020908101906107fe9190611c94565b828054611c1c906129c4565b90600052602060002090601f016020900481019282611c3e5760008555611c84565b82601f10611c5757805160ff1916838001178555611c84565b82800160010185558215611c84579182015b82811115611c84578251825591602001919060010190611c69565b50611c90929150611c94565b5090565b5b80821115611c905760008155600101611c95565b60006001600160401b0380841115611cc357611cc3612a54565b604051601f8501601f191681016020018281118282101715611ce757611ce7612a54565b604052848152915081838501861015611cff57600080fd5b8484602083013760006020868301015250509392505050565b80356001600160a01b038116811461051557600080fd5b60008083601f840112611d40578182fd5b5081356001600160401b03811115611d56578182fd5b602083019150836020828501011115611d6e57600080fd5b9250929050565b600060208284031215611d86578081fd5b61149a82611d18565b60008060408385031215611da1578081fd5b611daa83611d18565b9150611db860208401611d18565b90509250929050565b600080600060608486031215611dd5578081fd5b611dde84611d18565b9250611dec60208501611d18565b9150604084013590509250925092565b60008060008060808587031215611e11578081fd5b611e1a85611d18565b9350611e2860208601611d18565b92506040850135915060608501356001600160401b03811115611e49578182fd5b8501601f81018713611e59578182fd5b611e6887823560208401611ca9565b91505092959194509250565b60008060408385031215611e86578182fd5b611e8f83611d18565b91506020830135611e9f81612a6a565b809150509250929050565b60008060408385031215611ebc578182fd5b611ec583611d18565b946020939093013593505050565b60008060008060008060008060006101008a8c031215611ef1578485fd5b611efa8a611d18565b985060208a0135975060408a01356001600160401b0380821115611f1c578687fd5b818c0191508c601f830112611f2f578687fd5b611f3e8d833560208501611ca9565b9850611f4c60608d01611d18565b975060808c0135965060a08c0135955060c08c0135915080821115611f6f578485fd5b50611f7c8c828d01611d2f565b9a9d999c50979a9699959894979660e00135949350505050565b600060208284031215611fa7578081fd5b815161149a81612a6a565b600060208284031215611fc3578081fd5b5035919050565b60008060408385031215611fdc578182fd5b82359150611db860208401611d18565b600060208284031215611ffd578081fd5b813561149a81612a78565b600060208284031215612019578081fd5b815161149a81612a78565b600060208284031215612035578081fd5b5051919050565b6000806040838503121561204e578182fd5b50508035926020909101359150565b60008151808452612075816020860160208601612998565b601f01601f19169290920160200192915050565b6000835161209b818460208801612998565b8351908301906120af818360208801612998565b01949350505050565b61190160f01b81526002810192909252602282015260420190565b6001600160a01b0391909116815260200190565b6001600160a01b0392831681529116602082015260400190565b6001600160a01b039384168152919092166020820152604081019190915260600190565b6001600160a01b03858116825284166020820152604081018390526080606082018190526000906119859083018461205d565b901515815260200190565b90815260200190565b9485526001600160a01b03938416602086015260408501929092529091166060830152608082015260a00190565b918252602082015260400190565b9485526020850193909352604084019190915260608301526001600160a01b0316608082015260a00190565b93845260ff9290921660208401526040830152606082015260800190565b60006020825261149a602083018461205d565b60208082526018908201527745434453413a20696e76616c6964207369676e617475726560401b604082015260600190565b6020808252602f90820152600080516020612acf83398151915260408201526e0818591b5a5b881d1bc819dc985b9d608a1b606082015260800190565b6020808252601f908201527f45434453413a20696e76616c6964207369676e6174757265206c656e67746800604082015260600190565b60208082526032908201527f4552433732313a207472616e7366657220746f206e6f6e20455243373231526560408201527131b2b4bb32b91034b6b83632b6b2b73a32b960711b606082015260800190565b60208082526026908201527f4f776e61626c653a206e6577206f776e657220697320746865207a65726f206160408201526564647265737360d01b606082015260800190565b6020808252601c908201527b115490cdcc8c4e881d1bdad95b88185b1c9958591e481b5a5b9d195960221b604082015260600190565b60208082526024908201527f4552433732313a207472616e7366657220746f20746865207a65726f206164646040820152637265737360e01b606082015260800190565b60208082526019908201527822a9219b99189d1030b8383937bb32903a379031b0b63632b960391b604082015260600190565b60208082526022908201527f45434453413a20696e76616c6964207369676e6174757265202773272076616c604082015261756560f01b606082015260800190565b6020808252602c908201527f4552433732313a206f70657261746f7220717565727920666f72206e6f6e657860408201526b34b9ba32b73a103a37b5b2b760a11b606082015260800190565b6020808252603090820152600080516020612acf83398151915260408201526f2061646d696e20746f207265766f6b6560801b606082015260800190565b60208082526038908201527f4552433732313a20617070726f76652063616c6c6572206973206e6f74206f776040820152771b995c881b9bdc88185c1c1c9bdd995908199bdc88185b1b60421b606082015260800190565b6020808252602a908201527f4552433732313a2062616c616e636520717565727920666f7220746865207a65604082015269726f206164647265737360b01b606082015260800190565b60208082526029908201527f4552433732313a206f776e657220717565727920666f72206e6f6e657869737460408201526832b73a103a37b5b2b760b91b606082015260800190565b6020808252602e908201527f45524337323155524953746f726167653a2055524920736574206f66206e6f6e60408201526d32bc34b9ba32b73a103a37b5b2b760911b606082015260800190565b6020808252603d908201527f546865207061796d656e7420616d6f756e74206d75737420626520677265617460408201527f6572207468616e206f7220657175616c20746f20706179416d6f756e74000000606082015260800190565b60208082526022908201527f45434453413a20696e76616c6964207369676e6174757265202776272076616c604082015261756560f01b606082015260800190565b6020808252818101527f4552433732313a206d696e7420746f20746865207a65726f2061646472657373604082015260600190565b60208082526031908201527f45524337323155524953746f726167653a2055524920717565727920666f72206040820152703737b732bc34b9ba32b73a103a37b5b2b760791b606082015260800190565b6020808252602c908201527f4552433732313a20617070726f76656420717565727920666f72206e6f6e657860408201526b34b9ba32b73a103a37b5b2b760a11b606082015260800190565b6020808252818101527f4f776e61626c653a2063616c6c6572206973206e6f7420746865206f776e6572604082015260600190565b60208082526029908201527f4552433732313a207472616e73666572206f6620746f6b656e2074686174206960408201526839903737ba1037bbb760b91b606082015260800190565b6020808252602f908201527f4552433732314d657461646174613a2055524920717565727920666f72206e6f60408201526e3732bc34b9ba32b73a103a37b5b2b760891b606082015260800190565b60208082526021908201527f4552433732313a20617070726f76616c20746f2063757272656e74206f776e656040820152603960f91b606082015260800190565b60208082526021908201527f5369676e617475726520696e76616c6964206f7220756e617574686f72697a656040820152601960fa1b606082015260800190565b60208082526031908201527f4552433732313a207472616e736665722063616c6c6572206973206e6f74206f6040820152701ddb995c881b9bdc88185c1c1c9bdd9959607a1b606082015260800190565b6020808252602f908201527f416363657373436f6e74726f6c3a2063616e206f6e6c792072656e6f756e636560408201526e103937b632b9903337b91039b2b63360891b606082015260800190565b6000821982111561296857612968612a28565b500190565b60008261297c5761297c612a3e565b500490565b60008282101561299357612993612a28565b500390565b60005b838110156129b357818101518382015260200161299b565b83811115610b055750506000910152565b6002810460018216806129d857607f821691505b6020821081141561083157634e487b7160e01b600052602260045260246000fd5b6000600019821415612a0d57612a0d612a28565b5060010190565b600082612a2357612a23612a3e565b500690565b634e487b7160e01b600052601160045260246000fd5b634e487b7160e01b600052601260045260246000fd5b634e487b7160e01b600052604160045260246000fd5b80151581146107fe57600080fd5b6001600160e01b0319811681146107fe57600080fdfe8be0079c531659141344cd1fd0a4f28419497f9722a3daafe3b4186f6b6457e0ddf252ad1be2c89b69c2b068fc378daa952ba7f163c4a11628f55a4df523b3ef416363657373436f6e74726f6c3a2073656e646572206d75737420626520616ea264697066735822122028bb45efcf5c090f61dc681b40927bdde094aedc6591b9d26d16711b0f656e9664736f6c634300080000339f2df0fed2c77648de5860a4cc508cd0818c85b8b8a1ab4ceeef8d981c8956a6e97b137254058bd94f28d2f3eb79e2d34074ffb488d042e3bc958e0a57d2fa22",
  "linkReferences": {},
  "deployedLinkReferences": {}
}