{
  "_format": "hh-sol-artifact-1",
  "contractName": "LazyNFT1948",
  "sourceName": "contracts/LazyNFT1948/LazyNFT1948.sol",
  "abi": [
    {
      "inputs": [
        {
          "internalType": "string",
          "name": "name",
          "type": "string"
        },
        {
          "internalType": "string",
          "name": "symbol",
          "type": "string"
        },
        {
          "internalType": "address",
          "name": "minter",
          "type": "address"
        }
      ],
      "stateMutability": "nonpayable",
      "type": "constructor"
    },
    {
      "anonymous": false,
      "inputs": [
        {
          "indexed": true,
          "internalType": "address",
          "name": "owner",
          "type": "address"
        },
        {
          "indexed": true,
          "internalType": "address",
          "name": "approved",
          "type": "address"
        },
        {
          "indexed": true,
          "internalType": "uint256",
          "name": "tokenId",
          "type": "uint256"
        }
      ],
      "name": "Approval",
      "type": "event"
    },
    {
      "anonymous": false,
      "inputs": [
        {
          "indexed": true,
          "internalType": "address",
          "name": "owner",
          "type": "address"
        },
        {
          "indexed": true,
          "internalType": "address",
          "name": "operator",
          "type": "address"
        },
        {
          "indexed": false,
          "internalType": "bool",
          "name": "approved",
          "type": "bool"
        }
      ],
      "name": "ApprovalForAll",
      "type": "event"
    },
    {
      "anonymous": false,
      "inputs": [
        {
          "indexed": true,
          "internalType": "uint256",
          "name": "tokenId",
          "type": "uint256"
        },
        {
          "indexed": false,
          "internalType": "bytes32",
          "name": "oldData",
          "type": "bytes32"
        },
        {
          "indexed": false,
          "internalType": "bytes32",
          "name": "newData",
          "type": "bytes32"
        }
      ],
      "name": "DataUpdated",
      "type": "event"
    },
    {
      "anonymous": false,
      "inputs": [
        {
          "indexed": true,
          "internalType": "address",
          "name": "previousOwner",
          "type": "address"
        },
        {
          "indexed": true,
          "internalType": "address",
          "name": "newOwner",
          "type": "address"
        }
      ],
      "name": "OwnershipTransferred",
      "type": "event"
    },
    {
      "anonymous": false,
      "inputs": [
        {
          "indexed": true,
          "internalType": "bytes32",
          "name": "role",
          "type": "bytes32"
        },
        {
          "indexed": true,
          "internalType": "bytes32",
          "name": "previousAdminRole",
          "type": "bytes32"
        },
        {
          "indexed": true,
          "internalType": "bytes32",
          "name": "newAdminRole",
          "type": "bytes32"
        }
      ],
      "name": "RoleAdminChanged",
      "type": "event"
    },
    {
      "anonymous": false,
      "inputs": [
        {
          "indexed": true,
          "internalType": "bytes32",
          "name": "role",
          "type": "bytes32"
        },
        {
          "indexed": true,
          "internalType": "address",
          "name": "account",
          "type": "address"
        },
        {
          "indexed": true,
          "internalType": "address",
          "name": "sender",
          "type": "address"
        }
      ],
      "name": "RoleGranted",
      "type": "event"
    },
    {
      "anonymous": false,
      "inputs": [
        {
          "indexed": true,
          "internalType": "bytes32",
          "name": "role",
          "type": "bytes32"
        },
        {
          "indexed": true,
          "internalType": "address",
          "name": "account",
          "type": "address"
        },
        {
          "indexed": true,
          "internalType": "address",
          "name": "sender",
          "type": "address"
        }
      ],
      "name": "RoleRevoked",
      "type": "event"
    },
    {
      "anonymous": false,
      "inputs": [
        {
          "indexed": true,
          "internalType": "address",
          "name": "from",
          "type": "address"
        },
        {
          "indexed": true,
          "internalType": "address",
          "name": "to",
          "type": "address"
        },
        {
          "indexed": true,
          "internalType": "uint256",
          "name": "tokenId",
          "type": "uint256"
        }
      ],
      "name": "Transfer",
      "type": "event"
    },
    {
      "anonymous": false,
      "inputs": [
        {
          "indexed": true,
          "internalType": "address",
          "name": "nftAddress",
          "type": "address"
        },
        {
          "indexed": true,
          "internalType": "address",
          "name": "to",
          "type": "address"
        },
        {
          "indexed": true,
          "internalType": "uint256",
          "name": "tokenId",
          "type": "uint256"
        },
        {
          "indexed": false,
          "internalType": "address",
          "name": "from",
          "type": "address"
        }
      ],
      "name": "UptickProductCardNFT",
      "type": "event"
    },
    {
      "inputs": [],
      "name": "DEFAULT_ADMIN_ROLE",
      "outputs": [
        {
          "internalType": "bytes32",
          "name": "",
          "type": "bytes32"
        }
      ],
      "stateMutability": "view",
      "type": "function"
    },
    {
      "inputs": [
        {
          "internalType": "address",
          "name": "to",
          "type": "address"
        },
        {
          "internalType": "uint256",
          "name": "tokenId",
          "type": "uint256"
        }
      ],
      "name": "approve",
      "outputs": [],
      "stateMutability": "nonpayable",
      "type": "function"
    },
    {
      "inputs": [
        {
          "internalType": "address",
          "name": "owner",
          "type": "address"
        }
      ],
      "name": "balanceOf",
      "outputs": [
        {
          "internalType": "uint256",
          "name": "",
          "type": "uint256"
        }
      ],
      "stateMutability": "view",
      "type": "function"
    },
    {
      "inputs": [
        {
          "internalType": "uint256",
          "name": "tokenId",
          "type": "uint256"
        }
      ],
      "name": "burn",
      "outputs": [],
      "stateMutability": "nonpayable",
      "type": "function"
    },
    {
      "inputs": [
        {
          "internalType": "uint256",
          "name": "tokenId",
          "type": "uint256"
        }
      ],
      "name": "exists",
      "outputs": [
        {
          "internalType": "bool",
          "name": "",
          "type": "bool"
        }
      ],
      "stateMutability": "view",
      "type": "function"
    },
    {
      "inputs": [
        {
          "internalType": "uint256",
          "name": "tokenId",
          "type": "uint256"
        }
      ],
      "name": "getApproved",
      "outputs": [
        {
          "internalType": "address",
          "name": "",
          "type": "address"
        }
      ],
      "stateMutability": "view",
      "type": "function"
    },
    {
      "inputs": [],
      "name": "getChainID",
      "outputs": [
        {
          "internalType": "uint256",
          "name": "",
          "type": "uint256"
        }
      ],
      "stateMutability": "view",
      "type": "function"
    },
    {
      "inputs": [
        {
          "internalType": "uint256",
          "name": "_tokenId",
          "type": "uint256"
        }
      ],
      "name": "getCreator",
      "outputs": [
        {
          "internalType": "address",
          "name": "",
          "type": "address"
        }
      ],
      "stateMutability": "view",
      "type": "function"
    },
    {
      "inputs": [
        {
          "internalType": "uint256",
          "name": "_tokenId",
          "type": "uint256"
        }
      ],
      "name": "getCreatorFee",
      "outputs": [
        {
          "internalType": "uint256",
          "name": "",
          "type": "uint256"
        }
      ],
      "stateMutability": "view",
      "type": "function"
    },
    {
      "inputs": [
        {
          "internalType": "bytes32",
          "name": "role",
          "type": "bytes32"
        }
      ],
      "name": "getRoleAdmin",
      "outputs": [
        {
          "internalType": "bytes32",
          "name": "",
          "type": "bytes32"
        }
      ],
      "stateMutability": "view",
      "type": "function"
    },
    {
      "inputs": [
        {
          "internalType": "bytes32",
          "name": "role",
          "type": "bytes32"
        },
        {
          "internalType": "address",
          "name": "account",
          "type": "address"
        }
      ],
      "name": "grantRole",
      "outputs": [],
      "stateMutability": "nonpayable",
      "type": "function"
    },
    {
      "inputs": [
        {
          "internalType": "bytes32",
          "name": "role",
          "type": "bytes32"
        },
        {
          "internalType": "address",
          "name": "account",
          "type": "address"
        }
      ],
      "name": "hasRole",
      "outputs": [
        {
          "internalType": "bool",
          "name": "",
          "type": "bool"
        }
      ],
      "stateMutability": "view",
      "type": "function"
    },
    {
      "inputs": [
        {
          "internalType": "address",
          "name": "owner",
          "type": "address"
        },
        {
          "internalType": "address",
          "name": "operator",
          "type": "address"
        }
      ],
      "name": "isApprovedForAll",
      "outputs": [
        {
          "internalType": "bool",
          "name": "",
          "type": "bool"
        }
      ],
      "stateMutability": "view",
      "type": "function"
    },
    {
      "inputs": [
        {
          "internalType": "address",
          "name": "to",
          "type": "address"
        },
        {
          "internalType": "uint256",
          "name": "tokenId",
          "type": "uint256"
        },
        {
          "internalType": "string",
          "name": "tokenURI",
          "type": "string"
        },
        {
          "internalType": "address",
          "name": "payAddress",
          "type": "address"
        },
        {
          "internalType": "uint256",
          "name": "payAmount",
          "type": "uint256"
        },
        {
          "internalType": "uint256",
          "name": "creatorFee",
          "type": "uint256"
        },
        {
          "internalType": "bytes",
          "name": "signature",
          "type": "bytes"
        },
        {
          "internalType": "bytes32",
          "name": "newData",
          "type": "bytes32"
        }
      ],
      "name": "lazyMint",
      "outputs": [],
      "stateMutability": "payable",
      "type": "function"
    },
    {
      "inputs": [],
      "name": "name",
      "outputs": [
        {
          "internalType": "string",
          "name": "",
          "type": "string"
        }
      ],
      "stateMutability": "view",
      "type": "function"
    },
    {
      "inputs": [],
      "name": "owner",
      "outputs": [
        {
          "internalType": "address",
          "name": "",
          "type": "address"
        }
      ],
      "stateMutability": "view",
      "type": "function"
    },
    {
      "inputs": [
        {
          "internalType": "uint256",
          "name": "tokenId",
          "type": "uint256"
        }
      ],
      "name": "ownerOf",
      "outputs": [
        {
          "internalType": "address",
          "name": "",
          "type": "address"
        }
      ],
      "stateMutability": "view",
      "type": "function"
    },
    {
      "inputs": [
        {
          "internalType": "uint256",
          "name": "tokenId",
          "type": "uint256"
        }
      ],
      "name": "readData",
      "outputs": [
        {
          "internalType": "bytes32",
          "name": "",
          "type": "bytes32"
        }
      ],
      "stateMutability": "view",
      "type": "function"
    },
    {
      "inputs": [],
      "name": "renounceOwnership",
      "outputs": [],
      "stateMutability": "nonpayable",
      "type": "function"
    },
    {
      "inputs": [
        {
          "internalType": "bytes32",
          "name": "role",
          "type": "bytes32"
        },
        {
          "internalType": "address",
          "name": "account",
          "type": "address"
        }
      ],
      "name": "renounceRole",
      "outputs": [],
      "stateMutability": "nonpayable",
      "type": "function"
    },
    {
      "inputs": [
        {
          "internalType": "bytes32",
          "name": "role",
          "type": "bytes32"
        },
        {
          "internalType": "address",
          "name": "account",
          "type": "address"
        }
      ],
      "name": "revokeRole",
      "outputs": [],
      "stateMutability": "nonpayable",
      "type": "function"
    },
    {
      "inputs": [
        {
          "internalType": "address",
          "name": "from",
          "type": "address"
        },
        {
          "internalType": "address",
          "name": "to",
          "type": "address"
        },
        {
          "internalType": "uint256",
          "name": "tokenId",
          "type": "uint256"
        }
      ],
      "name": "safeTransferFrom",
      "outputs": [],
      "stateMutability": "nonpayable",
      "type": "function"
    },
    {
      "inputs": [
        {
          "internalType": "address",
          "name": "from",
          "type": "address"
        },
        {
          "internalType": "address",
          "name": "to",
          "type": "address"
        },
        {
          "internalType": "uint256",
          "name": "tokenId",
          "type": "uint256"
        },
        {
          "internalType": "bytes",
          "name": "_data",
          "type": "bytes"
        }
      ],
      "name": "safeTransferFrom",
      "outputs": [],
      "stateMutability": "nonpayable",
      "type": "function"
    },
    {
      "inputs": [
        {
          "internalType": "address",
          "name": "operator",
          "type": "address"
        },
        {
          "internalType": "bool",
          "name": "approved",
          "type": "bool"
        }
      ],
      "name": "setApprovalForAll",
      "outputs": [],
      "stateMutability": "nonpayable",
      "type": "function"
    },
    {
      "inputs": [
        {
          "internalType": "bytes4",
          "name": "interfaceId",
          "type": "bytes4"
        }
      ],
      "name": "supportsInterface",
      "outputs": [
        {
          "internalType": "bool",
          "name": "",
          "type": "bool"
        }
      ],
      "stateMutability": "view",
      "type": "function"
    },
    {
      "inputs": [],
      "name": "symbol",
      "outputs": [
        {
          "internalType": "string",
          "name": "",
          "type": "string"
        }
      ],
      "stateMutability": "view",
      "type": "function"
    },
    {
      "inputs": [
        {
          "internalType": "uint256",
          "name": "tokenId",
          "type": "uint256"
        }
      ],
      "name": "tokenURI",
      "outputs": [
        {
          "internalType": "string",
          "name": "",
          "type": "string"
        }
      ],
      "stateMutability": "view",
      "type": "function"
    },
    {
      "inputs": [
        {
          "internalType": "address",
          "name": "from",
          "type": "address"
        },
        {
          "internalType": "address",
          "name": "to",
          "type": "address"
        },
        {
          "internalType": "uint256",
          "name": "tokenId",
          "type": "uint256"
        }
      ],
      "name": "transferFrom",
      "outputs": [],
      "stateMutability": "nonpayable",
      "type": "function"
    },
    {
      "inputs": [
        {
          "internalType": "address",
          "name": "newOwner",
          "type": "address"
        }
      ],
      "name": "transferOwnership",
      "outputs": [],
      "stateMutability": "nonpayable",
      "type": "function"
    },
    {
      "inputs": [
        {
          "internalType": "uint256",
          "name": "tokenId",
          "type": "uint256"
        },
        {
          "internalType": "bytes32",
          "name": "newData",
          "type": "bytes32"
        }
      ],
      "name": "writeData",
      "outputs": [],
      "stateMutability": "nonpayable",
      "type": "function"
    }
  ],
  "bytecode": "0x6101206040523480156200001257600080fd5b506040516200321738038062003217833981016040819052620000359162000551565b604051806040016040528060128152602001714c617a794e4654313934382d55707469636b60701b815250604051806040016040528060018152602001603160f81b815250848481600090805190602001906200009492919062000400565b508051620000aa90600190602084019062000400565b5050506000620000bf6200028960201b60201c565b600880546001600160a01b0319166001600160a01b038316908117909155604051919250906000907f8be0079c531659141344cd1fd0a4f28419497f9722a3daafe3b4186f6b6457e0908290a350815160208084019190912082519183019190912060c082905260e08190524660a0527f8b73c3c69bb8fe3d512ecc4cf759cc79239f7b179b0ffacaa9a75d522b39400f6200015d8184846200028d565b6080526101005250620001819250600091506200017b9050620002c9565b620002d8565b6200019c600080516020620031b783398151915282620002d8565b620001ba600080516020620031b78339815191526200017b620002c9565b620001d5600080516020620031f783398151915282620002d8565b620001f3600080516020620031f78339815191526200017b620002c9565b6200020e600080516020620031d783398151915282620002d8565b6200022c600080516020620031d78339815191526200017b620002c9565b62000248600080516020620031f78339815191526000620002e8565b62000264600080516020620031b78339815191526000620002e8565b62000280600080516020620031d78339815191526000620002e8565b50505062000659565b3390565b60008383834630604051602001620002aa959493929190620005da565b6040516020818303038152906040528051906020012090509392505050565b6008546001600160a01b031690565b620002e4828262000334565b5050565b80620002f483620003c0565b60405184907fbd79b86ffe0ab8e8776151514217cd7cacd52c909f66475c3af44e129f0b00ff90600090a460009182526007602052604090912060010155565b620003408282620003d5565b620002e45760008281526007602090815260408083206001600160a01b03851684529091529020805460ff191660011790556200037c62000289565b6001600160a01b0316816001600160a01b0316837f2f8788117e7eff1d82e926ec794901d17c78024a50270940304540a733656f0d60405160405180910390a45050565b60009081526007602052604090206001015490565b60009182526007602090815260408084206001600160a01b0393909316845291905290205460ff1690565b8280546200040e9062000606565b90600052602060002090601f0160209004810192826200043257600085556200047d565b82601f106200044d57805160ff19168380011785556200047d565b828001600101855582156200047d579182015b828111156200047d57825182559160200191906001019062000460565b506200048b9291506200048f565b5090565b5b808211156200048b576000815560010162000490565b600082601f830112620004b7578081fd5b81516001600160401b0380821115620004d457620004d462000643565b6040516020601f8401601f1916820181018381118382101715620004fc57620004fc62000643565b604052838252858401810187101562000513578485fd5b8492505b8383101562000536578583018101518284018201529182019162000517565b838311156200054757848185840101525b5095945050505050565b60008060006060848603121562000566578283fd5b83516001600160401b03808211156200057d578485fd5b6200058b87838801620004a6565b94506020860151915080821115620005a1578384fd5b50620005b086828701620004a6565b604086015190935090506001600160a01b0381168114620005cf578182fd5b809150509250925092565b9485526020850193909352604084019190915260608301526001600160a01b0316608082015260a00190565b6002810460018216806200061b57607f821691505b602082108114156200063d57634e487b7160e01b600052602260045260246000fd5b50919050565b634e487b7160e01b600052604160045260246000fd5b60805160a05160c05160e05161010051612b196200069e6000396000611aef01526000611b3101526000611b1001526000611a9d01526000611ac60152612b196000f3fe60806040526004361061015d5760003560e01c806301ffc9a71461016257806306fdde0314610198578063081812fc146101ba578063095ea7b3146101e757806323b872dd14610209578063248a9ca3146102295780632f2ff15d1461025657806336568abe1461027657806337ebbc031461029657806342842e0e146102b657806342966c68146102d65780634f558e79146102f6578063564b81ef146103165780636352211e1461032b57806370a082311461034b578063715018a61461036b5780638da5cb5b1461038057806391d148541461039557806395d89b41146103b5578063a217fddf146103ca578063a22cb465146103df578063a983d43f146103ff578063b88d4fde1461041f578063c87b56dd1461043f578063d48e638a1461045f578063d547741f1461047f578063e1c941501461049f578063e985e9c5146104b2578063f1af9d3f146104d2578063f2fde38b146104f2575b600080fd5b34801561016e57600080fd5b5061018261017d366004611fe1565b610512565b60405161018f919061214d565b60405180910390f35b3480156101a457600080fd5b506101ad610525565b60405161018f91906121e7565b3480156101c657600080fd5b506101da6101d5366004611fa7565b6105b8565b60405161018f91906120c8565b3480156101f357600080fd5b50610207610202366004611e9f565b610604565b005b34801561021557600080fd5b50610207610224366004611db6565b61069c565b34801561023557600080fd5b50610249610244366004611fa7565b6106d4565b60405161018f9190612158565b34801561026257600080fd5b50610207610271366004611fbf565b6106e9565b34801561028257600080fd5b50610207610291366004611fbf565b610727565b3480156102a257600080fd5b506102496102b1366004611fa7565b610769565b3480156102c257600080fd5b506102076102d1366004611db6565b610790565b3480156102e257600080fd5b506102076102f1366004611fa7565b6107ab565b34801561030257600080fd5b50610182610311366004611fa7565b6107fd565b34801561032257600080fd5b50610249610833565b34801561033757600080fd5b506101da610346366004611fa7565b610837565b34801561035757600080fd5b50610249610366366004611d6a565b61086c565b34801561037757600080fd5b506102076108b0565b34801561038c57600080fd5b506101da610927565b3480156103a157600080fd5b506101826103b0366004611fbf565b610936565b3480156103c157600080fd5b506101ad610961565b3480156103d657600080fd5b50610249610970565b3480156103eb57600080fd5b506102076103fa366004611e69565b610975565b34801561040b57600080fd5b5061020761041a366004612031565b610a43565b34801561042b57600080fd5b5061020761043a366004611df1565b610aa5565b34801561044b57600080fd5b506101ad61045a366004611fa7565b610ae4565b34801561046b57600080fd5b506101da61047a366004611fa7565b610c05565b34801561048b57600080fd5b5061020761049a366004611fbf565b610c0f565b6102076104ad366004611ec8565b610c37565b3480156104be57600080fd5b506101826104cd366004611d84565b610ee8565b3480156104de57600080fd5b506102496104ed366004611fa7565b610f16565b3480156104fe57600080fd5b5061020761050d366004611d6a565b610f28565b600061051d82610fd7565b90505b919050565b606060008054610534906129b9565b80601f0160208091040260200160405190810160405280929190818152602001828054610560906129b9565b80156105ad5780601f10610582576101008083540402835291602001916105ad565b820191906000526020600020905b81548152906001019060200180831161059057829003601f168201915b505050505090505b90565b60006105c382610ffc565b6105e85760405162461bcd60e51b81526004016105df9061270f565b60405180910390fd5b506000908152600460205260409020546001600160a01b031690565b600061060f82610837565b9050806001600160a01b0316836001600160a01b031614156106435760405162461bcd60e51b81526004016105df90612828565b806001600160a01b0316610655611019565b6001600160a01b031614806106715750610671816104cd611019565b61068d5760405162461bcd60e51b81526004016105df906124b1565b610697838361101d565b505050565b6106ad6106a7611019565b8261108b565b6106c95760405162461bcd60e51b81526004016105df906128aa565b610697838383611108565b60009081526007602052604090206001015490565b6106fd6106f5836106d4565b6103b0611019565b6107195760405162461bcd60e51b81526004016105df9061222c565b6107238282611223565b5050565b61072f611019565b6001600160a01b0316816001600160a01b03161461075f5760405162461bcd60e51b81526004016105df906128fb565b61072382826112aa565b600061077482610ffc565b61077d57600080fd5b506000908152600a602052604090205490565b61069783838360405180602001604052806000815250610aa5565b6107d57fe97b137254058bd94f28d2f3eb79e2d34074ffb488d042e3bc958e0a57d2fa2233610936565b6107f15760405162461bcd60e51b81526004016105df90612869565b6107fa8161132f565b50565b60008061080983610837565b90506001600160a01b038116610823576000915050610520565b6001915050610520565b50919050565b4690565b6000818152600260205260408120546001600160a01b03168061051d5760405162461bcd60e51b81526004016105df90612553565b60006001600160a01b0382166108945760405162461bcd60e51b81526004016105df90612509565b506001600160a01b031660009081526003602052604090205490565b6108b8611019565b6001600160a01b03166108c9610927565b6001600160a01b0316146108ef5760405162461bcd60e51b81526004016105df9061275b565b6008546040516000916001600160a01b031690600080516020612a84833981519152908390a3600880546001600160a01b0319169055565b6008546001600160a01b031690565b60009182526007602090815260408084206001600160a01b0393909316845291905290205460ff1690565b606060018054610534906129b9565b600081565b61097d611019565b6001600160a01b0316826001600160a01b031614156109ae5760405162461bcd60e51b81526004016105df906123b2565b80600560006109bb611019565b6001600160a01b03908116825260208083019390935260409182016000908120918716808252919093529120805460ff1916921515929092179091556109ff611019565b6001600160a01b03167f17307eab39ab6107e8899845ad3d59bd9653f200f220920489ca2b5937696c3183604051610a37919061214d565b60405180910390a35050565b610a4c82610ffc565b610a5557600080fd5b610a7f7f228ee8b3f8cc271cd50a995b9b74a518ed2d69ea1e8c3638d6081ccc6785cf8033610936565b610a9b5760405162461bcd60e51b81526004016105df90612869565b610723828261136f565b610ab6610ab0611019565b8361108b565b610ad25760405162461bcd60e51b81526004016105df906128aa565b610ade848484846113ce565b50505050565b6060610aef82610ffc565b610b0b5760405162461bcd60e51b81526004016105df906126be565b60008281526006602052604081208054610b24906129b9565b80601f0160208091040260200160405190810160405280929190818152602001828054610b50906129b9565b8015610b9d5780601f10610b7257610100808354040283529160200191610b9d565b820191906000526020600020905b815481529060010190602001808311610b8057829003601f168201915b505050505090506000610bae611401565b9050805160001415610bc257509050610520565b815115610bf4578082604051602001610bdc92919061207e565b60405160208183030381529060405292505050610520565b610bfd84611413565b949350505050565b600061051d610927565b610c1b6106f5836106d4565b61075f5760405162461bcd60e51b81526004016105df90612473565b6000610c7c8a8a898988888080601f01602080910402602001604051908101604052809392919081815260200183838082843760009201919091525061149692505050565b9050610ca87f9f2df0fed2c77648de5860a4cc508cd0818c85b8b8a1ab4ceeef8d981c8956a682610936565b610cc45760405162461bcd60e51b81526004016105df90612869565b610cce8a8a6114bc565b610cd88989611589565b6000898152600960205260408120869055610cf1610927565b90506001600160a01b038816610d5d5786341015610d215760405162461bcd60e51b81526004016105df906125ea565b6040516001600160a01b0382169088156108fc029089906000818181858888f19350505050158015610d57573d6000803e3d6000fd5b50610e85565b604051636eb1769f60e11b81526000906001600160a01b038a169063dd62ed3e90610d8e90339030906004016120dc565b60206040518083038186803b158015610da657600080fd5b505afa158015610dba573d6000803e3d6000fd5b505050506040513d601f19601f82011682018060405250810190610dde9190612019565b905087811015610e005760405162461bcd60e51b81526004016105df906125ea565b6040516323b872dd60e01b81526001600160a01b038a16906323b872dd90610e3090339086908d906004016120f6565b602060405180830381600087803b158015610e4a57600080fd5b505af1158015610e5e573d6000803e3d6000fd5b505050506040513d601f19601f82011682018060405250810190610e829190611f8b565b50505b610e8f8a8461136f565b898b6001600160a01b0316306001600160a01b03167fb57a631e28e9baca0330a3913c6f86b3a9c0b8e3162f8d3e6727efb8bce7ba3f84604051610ed391906120c8565b60405180910390a45050505050505050505050565b6001600160a01b03918216600090815260056020908152604080832093909416825291909152205460ff1690565b60009081526009602052604090205490565b610f30611019565b6001600160a01b0316610f41610927565b6001600160a01b031614610f675760405162461bcd60e51b81526004016105df9061275b565b6001600160a01b038116610f8d5760405162461bcd60e51b81526004016105df906122f2565b6008546040516001600160a01b03808416921690600080516020612a8483398151915290600090a3600880546001600160a01b0319166001600160a01b0392909216919091179055565b60006001600160e01b03198216637965db0b60e01b148061051d575061051d826115cd565b6000908152600260205260409020546001600160a01b0316151590565b3390565b600081815260046020526040902080546001600160a01b0319166001600160a01b038416908117909155819061105282610837565b6001600160a01b03167f8c5be1e5ebec7d5bd14f71427d1e84f3dd0314c0f7b2291e5b200ac8c7c3b92560405160405180910390a45050565b600061109682610ffc565b6110b25760405162461bcd60e51b81526004016105df90612427565b60006110bd83610837565b9050806001600160a01b0316846001600160a01b031614806110f85750836001600160a01b03166110ed846105b8565b6001600160a01b0316145b80610bfd5750610bfd8185610ee8565b826001600160a01b031661111b82610837565b6001600160a01b0316146111415760405162461bcd60e51b81526004016105df90612790565b6001600160a01b0382166111675760405162461bcd60e51b81526004016105df9061236e565b611172838383610697565b61117d60008261101d565b6001600160a01b03831660009081526003602052604081208054600192906111a6908490612976565b90915550506001600160a01b03821660009081526003602052604081208054600192906111d490849061294a565b909155505060008181526002602052604080822080546001600160a01b0319166001600160a01b038681169182179092559151849391871691600080516020612aa483398151915291a4505050565b61122d8282610936565b6107235760008281526007602090815260408083206001600160a01b03851684529091529020805460ff19166001179055611266611019565b6001600160a01b0316816001600160a01b0316837f2f8788117e7eff1d82e926ec794901d17c78024a50270940304540a733656f0d60405160405180910390a45050565b6112b48282610936565b156107235760008281526007602090815260408083206001600160a01b03851684529091529020805460ff191690556112eb611019565b6001600160a01b0316816001600160a01b0316837ff6391f5c32d9c69d2a47ea670b442974b53935d1edc7fd64eb21e047a839171b60405160405180910390a45050565b6113388161160d565b60008181526006602052604090208054611351906129b9565b1590506107fa5760008181526006602052604081206107fa91611bc9565b817f8ec06c2117d45dcb6bcb6ecf8918414a7ff1cb1ed07da8175e2cf638d0f4777f600a600085815260200190815260200160002054836040516113b492919061218f565b60405180910390a26000918252600a602052604090912055565b6113d9848484611108565b6113e5848484846116a2565b610ade5760405162461bcd60e51b81526004016105df906122a0565b60408051602081019091526000815290565b606061141e82610ffc565b61143a5760405162461bcd60e51b81526004016105df906127d9565b6000611444611401565b90506000815111611464576040518060200160405280600081525061148f565b8061146e846117bd565b60405160200161147f92919061207e565b6040516020818303038152906040525b9392505050565b6000806114a5878787876118d7565b90506114b18184611939565b979650505050505050565b6001600160a01b0382166114e25760405162461bcd60e51b81526004016105df90612689565b6114eb81610ffc565b156115085760405162461bcd60e51b81526004016105df90612338565b61151460008383610697565b6001600160a01b038216600090815260036020526040812080546001929061153d90849061294a565b909155505060008181526002602052604080822080546001600160a01b0319166001600160a01b0386169081179091559051839290600080516020612aa4833981519152908290a45050565b61159282610ffc565b6115ae5760405162461bcd60e51b81526004016105df9061259c565b6000828152600660209081526040909120825161069792840190611c05565b60006001600160e01b031982166380ac58cd60e01b14806115fe57506001600160e01b03198216635b5e139f60e01b145b8061051d575061051d82611984565b600061161882610837565b905061162681600084610697565b61163160008361101d565b6001600160a01b038116600090815260036020526040812080546001929061165a908490612976565b909155505060008281526002602052604080822080546001600160a01b0319169055518391906001600160a01b03841690600080516020612aa4833981519152908390a45050565b60006116b6846001600160a01b031661199d565b156117b257836001600160a01b031663150b7a026116d2611019565b8786866040518563ffffffff1660e01b81526004016116f4949392919061211a565b602060405180830381600087803b15801561170e57600080fd5b505af192505050801561173e575060408051601f3d908101601f1916820190925261173b91810190611ffd565b60015b611798573d80801561176c576040519150601f19603f3d011682016040523d82523d6000602084013e611771565b606091505b5080516117905760405162461bcd60e51b81526004016105df906122a0565b805181602001fd5b6001600160e01b031916630a85bd0160e11b149050610bfd565b506001949350505050565b6060816117e257506040805180820190915260018152600360fc1b6020820152610520565b8160005b811561180c57806117f6816129ee565b91506118059050600a83612962565b91506117e6565b6000816001600160401b0381111561183457634e487b7160e01b600052604160045260246000fd5b6040519080825280601f01601f19166020018201604052801561185e576020820181803683370190505b5090505b8415610bfd57611873600183612976565b9150611880600a86612a09565b61188b90603061294a565b60f81b8183815181106118ae57634e487b7160e01b600052603260045260246000fd5b60200101906001600160f81b031916908160001a9053506118d0600a86612962565b9450611862565b60006119307fbd54f54b4afd83cadbd97df587817a06ab1374186cdeed358de2ddf81730e95086868686604051602001611915959493929190612161565b604051602081830303815290604052805190602001206119a3565b95945050505050565b6000815160411461195c5760405162461bcd60e51b81526004016105df90612269565b60208201516040830151606084015160001a61197a868285856119b6565b9695505050505050565b6001600160e01b031981166301ffc9a760e01b14919050565b3b151590565b600061051d6119b0611a99565b83611b5c565b60006fa2a8918ca85bafe22016d0b997e4df60600160ff1b038211156119ee5760405162461bcd60e51b81526004016105df906123e5565b8360ff16601b1480611a0357508360ff16601c145b611a1f5760405162461bcd60e51b81526004016105df90612647565b600060018686868660405160008152602001604052604051611a4494939291906121c9565b6020604051602081039080840390855afa158015611a66573d6000803e3d6000fd5b5050604051601f1901519150506001600160a01b0381166119305760405162461bcd60e51b81526004016105df906121fa565b60007f0000000000000000000000000000000000000000000000000000000000000000461415611aea57507f00000000000000000000000000000000000000000000000000000000000000006105b5565b611b557f00000000000000000000000000000000000000000000000000000000000000007f00000000000000000000000000000000000000000000000000000000000000007f0000000000000000000000000000000000000000000000000000000000000000611b8f565b90506105b5565b60008282604051602001611b719291906120ad565b60405160208183030381529060405280519060200120905092915050565b60008383834630604051602001611baa95949392919061219d565b6040516020818303038152906040528051906020012090509392505050565b508054611bd5906129b9565b6000825580601f10611be757506107fa565b601f0160209004906000526020600020908101906107fa9190611c89565b828054611c11906129b9565b90600052602060002090601f016020900481019282611c335760008555611c79565b82601f10611c4c57805160ff1916838001178555611c79565b82800160010185558215611c79579182015b82811115611c79578251825591602001919060010190611c5e565b50611c85929150611c89565b5090565b5b80821115611c855760008155600101611c8a565b60006001600160401b0380841115611cb857611cb8612a49565b604051601f8501601f191681016020018281118282101715611cdc57611cdc612a49565b604052848152915081838501861015611cf457600080fd5b8484602083013760006020868301015250509392505050565b80356001600160a01b038116811461052057600080fd5b60008083601f840112611d35578182fd5b5081356001600160401b03811115611d4b578182fd5b602083019150836020828501011115611d6357600080fd5b9250929050565b600060208284031215611d7b578081fd5b61148f82611d0d565b60008060408385031215611d96578081fd5b611d9f83611d0d565b9150611dad60208401611d0d565b90509250929050565b600080600060608486031215611dca578081fd5b611dd384611d0d565b9250611de160208501611d0d565b9150604084013590509250925092565b60008060008060808587031215611e06578081fd5b611e0f85611d0d565b9350611e1d60208601611d0d565b92506040850135915060608501356001600160401b03811115611e3e578182fd5b8501601f81018713611e4e578182fd5b611e5d87823560208401611c9e565b91505092959194509250565b60008060408385031215611e7b578182fd5b611e8483611d0d565b91506020830135611e9481612a5f565b809150509250929050565b60008060408385031215611eb1578182fd5b611eba83611d0d565b946020939093013593505050565b60008060008060008060008060006101008a8c031215611ee6578485fd5b611eef8a611d0d565b985060208a0135975060408a01356001600160401b0380821115611f11578687fd5b818c0191508c601f830112611f24578687fd5b611f338d833560208501611c9e565b9850611f4160608d01611d0d565b975060808c0135965060a08c0135955060c08c0135915080821115611f64578485fd5b50611f718c828d01611d24565b9a9d999c50979a9699959894979660e00135949350505050565b600060208284031215611f9c578081fd5b815161148f81612a5f565b600060208284031215611fb8578081fd5b5035919050565b60008060408385031215611fd1578182fd5b82359150611dad60208401611d0d565b600060208284031215611ff2578081fd5b813561148f81612a6d565b60006020828403121561200e578081fd5b815161148f81612a6d565b60006020828403121561202a578081fd5b5051919050565b60008060408385031215612043578182fd5b50508035926020909101359150565b6000815180845261206a81602086016020860161298d565b601f01601f19169290920160200192915050565b6000835161209081846020880161298d565b8351908301906120a481836020880161298d565b01949350505050565b61190160f01b81526002810192909252602282015260420190565b6001600160a01b0391909116815260200190565b6001600160a01b0392831681529116602082015260400190565b6001600160a01b039384168152919092166020820152604081019190915260600190565b6001600160a01b038581168252841660208201526040810183905260806060820181905260009061197a90830184612052565b901515815260200190565b90815260200190565b9485526001600160a01b03938416602086015260408501929092529091166060830152608082015260a00190565b918252602082015260400190565b9485526020850193909352604084019190915260608301526001600160a01b0316608082015260a00190565b93845260ff9290921660208401526040830152606082015260800190565b60006020825261148f6020830184612052565b60208082526018908201527745434453413a20696e76616c6964207369676e617475726560401b604082015260600190565b6020808252602f90820152600080516020612ac483398151915260408201526e0818591b5a5b881d1bc819dc985b9d608a1b606082015260800190565b6020808252601f908201527f45434453413a20696e76616c6964207369676e6174757265206c656e67746800604082015260600190565b60208082526032908201527f4552433732313a207472616e7366657220746f206e6f6e20455243373231526560408201527131b2b4bb32b91034b6b83632b6b2b73a32b960711b606082015260800190565b60208082526026908201527f4f776e61626c653a206e6577206f776e657220697320746865207a65726f206160408201526564647265737360d01b606082015260800190565b6020808252601c908201527b115490cdcc8c4e881d1bdad95b88185b1c9958591e481b5a5b9d195960221b604082015260600190565b60208082526024908201527f4552433732313a207472616e7366657220746f20746865207a65726f206164646040820152637265737360e01b606082015260800190565b60208082526019908201527822a9219b99189d1030b8383937bb32903a379031b0b63632b960391b604082015260600190565b60208082526022908201527f45434453413a20696e76616c6964207369676e6174757265202773272076616c604082015261756560f01b606082015260800190565b6020808252602c908201527f4552433732313a206f70657261746f7220717565727920666f72206e6f6e657860408201526b34b9ba32b73a103a37b5b2b760a11b606082015260800190565b6020808252603090820152600080516020612ac483398151915260408201526f2061646d696e20746f207265766f6b6560801b606082015260800190565b60208082526038908201527f4552433732313a20617070726f76652063616c6c6572206973206e6f74206f776040820152771b995c881b9bdc88185c1c1c9bdd995908199bdc88185b1b60421b606082015260800190565b6020808252602a908201527f4552433732313a2062616c616e636520717565727920666f7220746865207a65604082015269726f206164647265737360b01b606082015260800190565b60208082526029908201527f4552433732313a206f776e657220717565727920666f72206e6f6e657869737460408201526832b73a103a37b5b2b760b91b606082015260800190565b6020808252602e908201527f45524337323155524953746f726167653a2055524920736574206f66206e6f6e60408201526d32bc34b9ba32b73a103a37b5b2b760911b606082015260800190565b6020808252603d908201527f546865207061796d656e7420616d6f756e74206d75737420626520677265617460408201527f6572207468616e206f7220657175616c20746f20706179416d6f756e74000000606082015260800190565b60208082526022908201527f45434453413a20696e76616c6964207369676e6174757265202776272076616c604082015261756560f01b606082015260800190565b6020808252818101527f4552433732313a206d696e7420746f20746865207a65726f2061646472657373604082015260600190565b60208082526031908201527f45524337323155524953746f726167653a2055524920717565727920666f72206040820152703737b732bc34b9ba32b73a103a37b5b2b760791b606082015260800190565b6020808252602c908201527f4552433732313a20617070726f76656420717565727920666f72206e6f6e657860408201526b34b9ba32b73a103a37b5b2b760a11b606082015260800190565b6020808252818101527f4f776e61626c653a2063616c6c6572206973206e6f7420746865206f776e6572604082015260600190565b60208082526029908201527f4552433732313a207472616e73666572206f6620746f6b656e2074686174206960408201526839903737ba1037bbb760b91b606082015260800190565b6020808252602f908201527f4552433732314d657461646174613a2055524920717565727920666f72206e6f60408201526e3732bc34b9ba32b73a103a37b5b2b760891b606082015260800190565b60208082526021908201527f4552433732313a20617070726f76616c20746f2063757272656e74206f776e656040820152603960f91b606082015260800190565b60208082526021908201527f5369676e617475726520696e76616c6964206f7220756e617574686f72697a656040820152601960fa1b606082015260800190565b60208082526031908201527f4552433732313a207472616e736665722063616c6c6572206973206e6f74206f6040820152701ddb995c881b9bdc88185c1c1c9bdd9959607a1b606082015260800190565b6020808252602f908201527f416363657373436f6e74726f6c3a2063616e206f6e6c792072656e6f756e636560408201526e103937b632b9903337b91039b2b63360891b606082015260800190565b6000821982111561295d5761295d612a1d565b500190565b60008261297157612971612a33565b500490565b60008282101561298857612988612a1d565b500390565b60005b838110156129a8578181015183820152602001612990565b83811115610ade5750506000910152565b6002810460018216806129cd57607f821691505b6020821081141561082d57634e487b7160e01b600052602260045260246000fd5b6000600019821415612a0257612a02612a1d565b5060010190565b600082612a1857612a18612a33565b500690565b634e487b7160e01b600052601160045260246000fd5b634e487b7160e01b600052601260045260246000fd5b634e487b7160e01b600052604160045260246000fd5b80151581146107fa57600080fd5b6001600160e01b0319811681146107fa57600080fdfe8be0079c531659141344cd1fd0a4f28419497f9722a3daafe3b4186f6b6457e0ddf252ad1be2c89b69c2b068fc378daa952ba7f163c4a11628f55a4df523b3ef416363657373436f6e74726f6c3a2073656e646572206d75737420626520616ea26469706673582212201850b88e9f03567a672c0773ef7cab03c1be0c73bd2ddab5107b923c3a38b82764736f6c634300080000339f2df0fed2c77648de5860a4cc508cd0818c85b8b8a1ab4ceeef8d981c8956a6228ee8b3f8cc271cd50a995b9b74a518ed2d69ea1e8c3638d6081ccc6785cf80e97b137254058bd94f28d2f3eb79e2d34074ffb488d042e3bc958e0a57d2fa22",
  "linkReferences": {},
  "deployedLinkReferences": {}
}